:020000040800F2
:10000000881900201D1200088B3D0008F11100081E
:10001000F1110008F1110008F111000800000000C2
:10002000000000000000000000000000F90E0008C1
:10003000F111000800000000B10E000809290008B5
:10004000750F0008750F0008750F0008750F000880
:10005000750F0008750F0008750F0008750F000870
:10006000750F0008750F0008750F0008750F000860
:10007000750F0008750F0008750F0008750F000850
:10008000750F0008750F0008750F0008750F000840
:10009000750F0008750F0008750F0008750F000830
:1000A000750F0008750F0008750F0008750F000820
:1000B000750F0008750F0008750F0008750F000810
:1000C000750F0008750F0008750F0008750F000800
:1000D000750F0008750F0008750F0008750F0008F0
:0C00E000750F0008750F0008750F000870
:0400EC00FFFFFFFF14
:1000F00053B94AB9002908BF00281CBF4FF0FF318F
:100100004FF0FF3000F00CB8ADF1080C6DE904CEF3
:1001100000F008F8DDF804E0DDE9022304B07047E0
:10012000704700BF2DE9F04786468C4608461546C5
:1001300074461946089E002B40F0C2808542B2FAF0
:1001400082F245D94AB1C2F1200300FA02FC2EFA2C
:1001500003F3954043EA0C0C94404FEA154EBCFB68
:10016000FEF8A8B20EFB18CC08FB00F9230C43EAFA
:100170000C43994528D9EB1808F1FF3704D299456B
:1001800002D9A8F102072B44A3EB0903B3FBFEFC41
:100190000EFB1C330CFB00F0A4B244EA0344A04263
:1001A00014D92C190CF1FF3304D2A04202D9ACF1BE
:1001B00002032C44241A43EA07401EB10023D44012
:1001C00034607360BDE8F0874746DDE76346F1E7DA
:1001D00092BB0121431B4FEA154EB3FBFEFCAFB2AD
:1001E0000EFB1C330CFB07F8200C40EA0343984538
:1001F00062D9EB180CF1FF3004D2984502D9ACF16A
:1002000002002B44A3EB0803B3FBFEFC0EFB1C33E4
:100210000CFB07F7A4B244EA0344A7424ED92C19B9
:100220000CF1FF3304D2A74202D9ACF102032C44F3
:10023000E41B43EA0040C0E7C2F12003954020FAE6
:1002400003F12EFA03F34FEA154EB1FBFEFC90408A
:100250000343AFB20EFB1C100CFB07F8190C41EA6C
:100260000041884504FA02F422D969180CF1FF30E4
:1002700004D2884502D9ACF102002944A1EB08015F
:10028000B1FBFEFC0EFB1C110CFB07F79BB243EA13
:1002900001439F420ED9EB180CF1FF3104D29F426B
:1002A00002D9ACF102012B44DB1B41EA004192E789
:1002B0006046E3E76146F7E76046A3E76346B7E7D2
:1002C000834206D916B9002108467BE7C6E900E05B
:1002D000F9E7B3FA83F78FB9834201D3724508D89F
:1002E000BEEB020460EB030301209C461EB9002113
:1002F00068E73846FAE7C6E9004CF8E7C7F1200C92
:10030000BB4022FA0CF41C434FEA144920FA0CF3C8
:10031000B3FBF9F8B8402EFA0CF101430EFA07F5D9
:1003200009FB18301FFA84FE08FB0EFA0B0C43EA97
:1003300000439A4502FA07F240D9E31808F1FF306A
:1003400004D29A4502D9A8F102002344A3EB0A0380
:10035000B3FBF9F809FB183308FB0EFE89B241EA3A
:1003600003418E452CD9611808F1FF3304D28E4524
:1003700002D9A8F10203214443EA0040A0FB0298FD
:10038000A1EB0E014145CE46434602D306D14D4571
:1003900004D2B9EB020E68EB04030138002EA6D09C
:1003A000B5EB0E0261EB030101FA0CFC22FA07F334
:1003B0004CEA0303F940C6E9003198E74046C5E737
:1003C0004346D9E7000000002DE9F04F054687B00D
:1003D000234F0421BB683846029304AA5B68984700
:1003E000002833DBDDE9044A46F65473A4FB03B26C
:1003F00003FB0A234FF0FF390393584616A3D3E9B2
:1004000000230399FFF774FEDFF85880039BD9455A
:1004100078EB0303064619D30FA3D3E90023A5FB0A
:1004200004B405FB0A4458462146FFF761FED9454E
:1004300078EB0404034609D3864207D300220092D6
:10044000029A0421146838463246A04707B0BDE836
:10045000F08F00BFAFF3008000CA9A3B000000009D
:10046000884E0008FFC99A3B70B50E4E0E4D3046BF
:100470000E4C012103F083FB2846012103F07FFB92
:100480002046012103F07BFB3046002103F077FB7F
:100490002846002103F073FB2046BDE87040002190
:1004A00003F06DBB845000087C50000874500008B5
:1004B00008B5074804F0F8FA20B9064803F080FBB5
:1004C000012008BD044803F07BFB0020F9E700BFD2
:1004D000884E00087253000897530008034A1368B7
:1004E0000133652BA8BF002313607047700A0020FA
:1004F00013B5C82200230B48CDE900230A4C64221F
:10050000002303F0F3FA0020FFF7D2FF0020217848
:1005100000F084F80020217803F04CFB0020FFF766
:10052000A3FFF7E728090020840C002010B50C4633
:10053000084604F0B9FA216820B9054803F040FBE9
:10054000012010BD034803F03BFB0020F9E700BF8A
:10055000B0530008D2530008F0B58BB017460C46D4
:100560000E2200210DF11A001E46012503F026FC83
:1005700044F212130B4ACDE90076CDE90423ADF81D
:1005800018500395CDF808D0A36820461E6802AA2B
:10059000002304A9B04718B1034803F011FB284613
:1005A0000BB0F0BD801A0600EE53000830B54FF4D2
:1005B00084650446ADF2244D2A46684603F0F3FBF9
:1005C0002B466A4603492068FFF7C6FF0DF2244D0B
:1005D00030BD00BF9C4E000810B50D4B04461A6894
:1005E000052392FBF3F303EB83039A4240680AD19D
:1005F00003F0D9FA07492046FFF7D8FF6068BDE845
:10060000104003F0D4BA03F0CEFA0349F3E700BF79
:10061000700A0020B8000020D804002001490068BA
:10062000FFF784BF9C4E0008014B1B68184700BFB2
:1006300000000020014B1860704700BF0000002040
:1006400007B50B46002102460091034800F006F86A
:1006500003B05DF804FB00BF290600082DE9F04F48
:1006600081468B4617461C46002595B0387808B958
:10067000284657E37B1C2528039306D05946C847D4
:100680000028C0F24F830135FBE1182200210EA89B
:1006900003F094FB7B78252B7DD0002398469E4663
:1006A0009C461E46781C014610F8012B2B2A00F0B0
:1006B000A18000F29880202A00F09F80232A00F079
:1006C0009F802BB19DF8403043F040038DF84030BF
:1006D000B8F1000F05D09DF8403043F020038DF8AD
:1006E0004030BEF1000F05D09DF8403043F01003BC
:1006F0008DF84030BCF1000F05D09DF8403043F03C
:1007000008038DF840302EB19DF8403043F00403CB
:100710008DF840309DF8403003F04400442803D168
:100720006FF386138DF840309DF840302A2A43F04D
:1007300080038DF840307FD19DF841204B1C42F062
:1007400001028DF841201A782E2A0CBF01210021C8
:100750009DF8412061F341028DF8412078D15A780B
:100760002A2A6ED000224FF00A0C0133194611F8E4
:10077000010BA0F13006092E40F295809DF8401043
:100780001292C1F3400040EAD2700A4660F341027F
:100790008DF840205CE0BA1C03928DF843309DF840
:1007A0004130DA0740F12E8154F8048BB8F1000F84
:1007B00007DA9DF84020C8F1000842F004028DF8E5
:1007C00040205E0740F1278154F804ABBAF1000FD6
:1007D00080F226819DF841306FF341038DF841305E
:1007E0004FF0FF3A1CE12D2A0DD0302A7FF469AF7B
:1007F000012358E74FF0010C55E74FF0010E52E787
:100800004FF001084FE701264DE703460EFB026259
:10081000303A184610F8016BA6F1300CBCF1090F04
:10082000F3D999428FD09DF840101192D20F62F304
:1008300041018DF8401086E70B4600224FF00A0E6A
:10084000E7E79DF84120023342F004028DF8412091
:100850001A786C2A47D02BD8682A31D06A2A4BD014
:100860004C2A51D01A4612F8013B782B03928DF88E
:1008700043309DF8412000F2BE806D2B51D8692B8A
:1008800000F2B980572B67D8412B03D0453B022B90
:1008900000F2B18004229DF8423062F302038DF829
:1008A0004230012373E00CFB02020B46303A5DE755
:1008B000742A25D07A2AD5D106219DF841200CE052
:1008C0005A78682A9DF8412006D1012161F3C602B9
:1008D0008DF841200233C5E7022161F3C6028DF88D
:1008E00041200133BEE75A786C2A9DF8412001D19E
:1008F0000421EBE70321F0E705219DF84120ECE717
:1009000007219DF84120E8E7BDF8402022F4F0429D
:1009100022F0020242F4804242F00202ADF840208E
:10092000DFE76E3BD9B201238B4040F282410B429C
:1009300037D113F0240F51D1D8075CD503219DF88E
:10094000423061F302038DF8423002F07803A3F1E4
:1009500040014B424B411AE00120A3F15801C9B2BA
:1009600000FA01F111F4624F94D140F601063142D0
:100970001DD111F4043F3ED09DF8423060F30203D4
:1009800002F07802402A8DF8423034D000239DF8DE
:100990004020C2F340010B4363F341028DF8402035
:1009A000FDE602219DF8423061F30203E8E70220F0
:1009B0009DF8421002F0780260F30201402A8DF89F
:1009C000421002BF9DF8401041F001018DF8401027
:1009D000632BDBD1131E18BF0123D8E703219DF839
:1009E000423012F0780F61F302038DF8423014BFE9
:1009F00001230023CBE79DF8403043F001038DF83D
:100A00004030C3E79DF94020002AACBF4FF0FF38CB
:100A1000DDF84480D5E698077FF5E2AEDDF848A022
:100A20000023CDE911339DF842309DF8411003F0C9
:100A30000703012BC1F3C30133D1CB1E042B04D810
:100A4000DFE803F0214646212100236801294FEA0F
:100A5000E372CDE90E321CD19DF93830DA17CDE9B9
:100A60000E3204349DF8403013F0030650D03A465D
:100A700059464846039B03F064F90028C0F25281AE
:100A80000544039FF2E554F8043BDA17CDE90E3232
:100A9000E8E70229E5D11AB243F3C033CDE90E23CA
:100AA000DFE7022B24D1CB1E042B04D8DFE803F0B0
:100AB00018101018180001294FF0000254F8043BD8
:100AC00014D00229CDE90E32CCD19BB20E93C9E7E6
:100AD000073424F00704F4E80223CDE90E23C1E72C
:100AE00054F8043B0E9300230F93BBE7DBB2CDE732
:100AF000042B08D1073424F00704D4E90023083478
:100B0000CDE90E23AEE7032BACD154F8043BDDE76F
:100B10009DF843007828B4D862281CD825283FF4D3
:100B2000ADAD5828ADD1DDE90E010DF136030093CE
:100B300010AA08AB03F0BFF8BAF1000F074680F225
:100B40009980002F9DD00DF13603D81B002E00F0A8
:100B5000C0800130BDE06338152892D801A252F858
:100B600020F000BF390C00084B0C0008830A000875
:100B7000830A0008830A0008830A00084B0C000857
:100B8000830A0008830A0008830A0008830A000811
:100B9000D70C00086F0C0008950C0008830A0008A9
:100BA000830A0008BD0B0008830A00086F0C0008C8
:100BB000830A0008830A00086F0C0008BAF1000FCE
:100BC0000E9F35DB5146384603F004F907EB000A67
:100BD000002F3FF456AF00269DF8423013F010026C
:100BE000059200F0928002305B06119A48BF129B7A
:100BF000104448BFC018B8F1000F049240F39F8022
:100C00009DF84020A8EB0008C2F38003500706932C
:100C100000F19580510640F188803EB1594630463A
:100C2000C84700287EDB069B01351E4630227DE04A
:100C3000384603F0B1F8C9E70E9B002601208DF875
:100C4000203008AF0DF1210AC6E719075ABFC3F3D8
:100C500000135E012B26DDE90E23002BBFF663AFE8
:100C6000524263EB43032D26CDE90E235BE70026BA
:100C700059E700269DF840200DF13603DB1B6FF38A
:100C800086129A458DF840207FF65BAFAAEB0303EE
:100C9000119356E70E9890B30DF13603009300219F
:100CA00008AB10AA03F007F8BDF84230BAF1000F04
:100CB00003F0EF0343F4F04343F010030746ADF8AD
:100CC0004230D6DA00283FF4DCAE00260DF13603C0
:100CD000181A9A4680E70E9B07293FF6D2AEDFE846
:100CE00001F00C04060C08080C0C1D70C9E61D80F0
:100CF000C7E6EA17C3E90052C3E61D60C1E62F4FFD
:100D0000064607F1050A052066E71A0748BF0130C5
:100D10006AE71046079306925946C847DDE906235D
:100D2000002804DA15B0BDE8F08F202243461946AA
:100D3000002903F1FF33ECDC454498466D1A2EB1CF
:100D400059463046C8470028ECDB01359DF8423053
:100D5000DA0601D41B0705D559463020C8470028BC
:100D6000E0DB0135059B33B159469DF84300C84788
:100D70000028D7DB0135049E2E4405E0594630207B
:100D8000C8470028CEDB0135731B002BF6DC534629
:100D90003A465946484602F0D4FF0028C2DB0544D3
:100DA000A844A8EB0503002B7FF76BAE5946202023
:100DB000C8470028B6DB0135F3E700BF165400082A
:100DC000024B034A00201A60704700BFAC000020AD
:100DD00000127A00014910220A60704710ED00E00D
:100DE00072B6404080F31188BFF36F8FBFF34F8F0F
:100DF00030BF62B6BFF36F8F704700BF40B20028AC
:100E000007DB01234109034A00F01F00834042F839
:100E10002130704700E100E040B2002801F10101FB
:100E2000ACBF00F16040064B4FEA0111C9B2ABBF45
:100E300000F5614000F00F0080F80013195470476E
:100E400014ED00E030BFFFF7FDBF00BF08B5094B50
:100E5000094A23F0604323F07F039360BFF34F8F71
:100E6000BFF36F8F01F0D6FF02F074FC00F0CAF9F7
:100E700002F01EF80000000800ED00E0094A0A49EF
:100E8000936809689866D96608494B6843F08053AF
:100E90004B60002383F31188BFF36F8F9368D86E84
:100EA000704700BF540C00205053000800ED00E0D4
:100EB0000F498A684FF030001044EFF3098C80E846
:100EC000F01F102080F31288BFF36F8F094F4FF08F
:100ED00000664A698A603E60906E0023936680F3E4
:100EE000118802F1300090E8F01F8CF309887047F8
:100EF000540C002004ED00E01EF0040F0CBFEFF3D3
:100F00000880EFF30980816911F8021C0229FFD0E3
:100F100001B502F032FF01BD42F8203C009B0B49B5
:100F200042F81C3C019B21F0010142F8183C029B55
:100F300042F8081C42F8143C4FF0807342F8043C1D
:100F40000023203A02658366704700BFDB3B000840
:100F5000074B9860104681F30988002163B681F33E
:100F60001188BFF36F8F0022002302F036FE00BF0E
:100F7000540C002001B5EFF30580A0F110004FEAFA
:100F8000C0000449014409C99847BDE8014002492D
:100F900008470000C44E00089D0F0008044B9968E4
:100FA0005869884203D003494FF080520A60704765
:100FB000540C002004ED00E0134B9A6A12F0007FFD
:100FC0009A6A14BF1E201D2012F0807F9A6A18BFF3
:100FD0001F2012F4002F9A6A18BF212012F4802FCC
:100FE0009A6A18BF222012F4003F9A6A18BF232081
:100FF00012F4803F9A6A18BF24206FEA02426FEA17
:1010000012429A62704700BF00ED00E010B5164B27
:101010009A6A9C6A12F4805F14BF1722162214F495
:10102000006F9C6A18BF1822A40509D59A6B9A6AAA
:10103000120404D518B19A6A22F400429A62192265
:10104000094B986A10F4806F986A18BF1A2210F43E
:10105000807F986A40F47F4098624FF000030CBF95
:1010600010461B200B7010BD00ED00E010B5154BB5
:101070000246986A9C6A10F0100F14BF11201020CD
:1010800014F0080F9C6A18BF1220A40709D5586BEA
:10109000986A000604D51AB19A6A22F080029A6210
:1010A0001320084B9A6A12F0010F9A6A18BF142095
:1010B000D20658BF9A6A9A6A42F0FF029A620023E7
:1010C0000B7010BD00ED00E070B5444B06465B6848
:1010D00000258AB0C3F3080385F31188BFF36F8F2F
:1010E00002F07F40B0F17F4F11D102F00C000828D0
:1010F0000DD010074CBF0E4601250022033B8DF892
:101100000720032B05D8DFE803F01E5C60592E464C
:10111000F3E700249DF807309BB92022314602A84E
:1011200002F041FE099B002D53D0C3F3080222B9FF
:101130006FEA53236FEA43230993204602A902F082
:101140001AFE0AB070BD254BDA6A9107E1D4DA6A5B
:10115000002ADEDBDA6A5200DBD55A69B16942F453
:1011600080725A61BFF34F8FBFF36F8F5A6931F8A6
:10117000021C22F480725A61BFF34F8FBFF36F8F4E
:101180004DF60272914209D09A6AD2B242B1012060
:101190000DF10701FFF76AFF0446BBE73468B9E7C2
:1011A0009A6A12F47F4F05D001200DF10701FFF775
:1011B0002DFFF1E79B6AB3F5803FAAD3FFF7FCFE52
:1011C000EAE700200DF10701E4E700200DF1070137
:1011D000EDE723F4FF7323F00103ADE700ED00E03A
:1011E000024A536943F010035361704700ED00E079
:1011F000EFF30880EFF3098101B57246FFF764FF52
:1012000001BD00BF002310210348C21801332B2B5E
:1012100082F80013F9D1704700E100E0102080F35C
:10122000118808484FF40061401880F30988EFF3F3
:1012300014800221084380F31488BFF36F8FFFF7F7
:1012400005FE0000880C0020084B9B6883420BD1F0
:10125000EFF3058343B1064B5A6842F080525A605F
:101260005A6A22F400425A6202F014BA540C002066
:1012700000ED00E0014B1860704700BF0400002043
:101280002DE9F041054600244FF001080D4E0E4FA8
:101290002B78E2B298181F280DDC726908FA00F367
:1012A00033EA020207D1736157F830301BB107EB04
:1012B000C002516898476A780134E3B29A42E7D293
:1012C000BDE8F08100040140740A0020044B18447A
:1012D00000230133994200F8012BFADC704700BF6C
:1012E000F808002010B4064B0246185601230549A1
:1012F00093400C6823430B6010BCFFF77FBD00BF19
:10130000F8080020000401401F2806DC01220349E0
:1013100082400B6823EA02030B607047000401401F
:1013200003292AD8DFE801F0020E141F0122134B13
:101330008240996821EA02019960D96821EA020293
:10134000DA60704701220D4B824099681143F3E740
:1013500001220A4B8240D9681143D960996821EA79
:1013600002029A607047012303FA00F0034B9A6867
:1013700002439A60DA681043D86070470004014065
:1013800030B50A4B53F830408C4204D103EBC00512
:101390006D68954205D034B943F8301003EBC003B3
:1013A0005A60002030BD6FF00F00FBE7740A002088
:1013B0000022034B43F8302003EBC0035A60704710
:1013C000740A00202DE9F04F89B0904699460191AA
:1013D000836803935D4B87689A4200F2B380836809
:1013E00007A99B6A9847002840F0A180079BB7F89F
:1013F00040400293B7F842301C44B7F844301C44D4
:101400000134B8F1000F00F09D80B9F57A7F80F0CB
:10141000998004FB08F4029B4FF6FF70B3FBF4F4D1
:10142000012C38BF012404FB08FBB7F846309C426E
:1014300006DD4FF6FF73984279D16FF0850076E0B4
:10144000029B029AB3FBFBF30BFB13228ABB039DA7
:1014500009FB03FEEE8E4FF47A75BEFBF5FE039D8D
:10146000B7F84020B7F842A01FFA83FC6D8FACEBB1
:101470000E0E0AEB020105921FFA8EFE039AAE458C
:10148000128F89B2049517D9B7F84450754528BF13
:1014900075460CF1FF3EAEEB050E1FFA8EFE714550
:1014A0000CD2ACEB0105013DB7F844C0ADB2AC4580
:1014B00012D20134C344B8E7049DEAE7911989B216
:1014C000714537D9ACEB010C0CF1FF3C1FFA8CF5E0
:1014D000DDF810C0AC45ECD8B6EB510F4FEA510C1B
:1014E00003D2059E664528BF6646A1EB060C1FFA8F
:1014F0008CFCE24520D2D446A1EB0A06B6B24FF4EA
:101500007A7201FB0221B1FBF3F1894534BFA1EBF3
:101510000901A9EB01018842CBD9019B88B25E8009
:10152000A3F804C0DD801C810029C2D1084609B09F
:10153000BDE8F08F7146CFE7624582BF8E1A9446B0
:10154000B6B2DCE76FF01500F1E700BF40420F00D4
:1015500070B50368044643F00103036001F096FA96
:101560000546094E6368DB0701D500200AE001F05B
:101570008DFA401BB042F5D96FF00A00236823F0C2
:101580000103236070BD00BF80FC0A0008B50A4655
:101590004168054814318368DB680BB1984708B18E
:1015A0006FF0040008BD00BFAC4D000870B5436883
:1015B00005691C684FF0FF324FF0FF3328460E4696
:1015C00002F0F2FD95F8ED302BB1284602F0EEFD69
:1015D0006FF00F0070BD3389E169114A013B0A4089
:1015E000C3F309031343B288013A120402F47022D0
:1015F0001343F288013A120502F4E0021343E36157
:10160000338843B1E269013B1B0603F0407322F0CB
:1016100040721343E361284602F0C8FD0020D9E779
:1016200000FC80FF2DE9F0411D461B7A0446072B84
:1016300088461746066900F2A1804FF0FF324FF04E
:10164000FF33504802F0B0FD4FF0FF324FF0FF3350
:10165000304602F0A9FD616895F808C006C98A42C3
:1016600014BF0E2100211CF0010E236955D0002467
:10167000703353F8040F002841D10CF002030CF032
:10168000060CBCF1060C18BF4FF0010C2868214471
:1016900043EAC003686843F00403C00040EA4C001A
:1016A00040F00400D2F800C24CF0010CC2F800C2B5
:1016B00095F808C01CF0010F53D002EBC10CCCF818
:1016C0004032CCF844020123D2F81C028B40034381
:1016D000C2F81C32D2F8003223F00103C2F8003203
:1016E0002B7A13F0010F4FEA8403334419BFC3F878
:1016F0007480C3F8C870C3F820805F6704E00134C9
:10170000072CB6D16FF01B04304602F04FFD1D4888
:1017100002F04CFD2046BDE8F081383353F8040F49
:10172000C8B94FEACC030CF0060CBCF1060C18BF8C
:101730004FF0010C286803F0100343EA4013686877
:101740000731400140EA0C1040F008000EF1070498
:1017500001EB6E01A6E70EF1010EBEF10E0FDDD119
:10176000D0E743EA004314F0010F01F148000ABF3B
:1017700002EBC00042F830304360A4E76FF085040C
:10178000C8E700BFE40B00202DE9F0434568074699
:10179000D0F810802E6885B0544803F0CFF9404649
:1017A00003F0CCF90122002108F1140003F0CDF977
:1017B000686A50B94E4C204603F076F950B96FF084
:1017C0001204204605B0BDE8F08303F06DF900284F
:1017D000F0D1F4E7A36820461B6805F1140198478F
:1017E000814610B16FF00404EBE7014601AA286AB4
:1017F00002F09EFF041EE4DB019B4A46197918683B
:1018000000F096FA041EDCDB3368DFF8E89023F082
:101810000203336001F03AF9044673689B074FD422
:101820003046FFF795FE04460028CAD1D5E90023CB
:101830009A4218BF0E24D3F8002242F00102C3F8E6
:1018400000227F236A68A340D2F80C120B43C2F82F
:101850000C326A68D2F8003223F00103C2F8003279
:10186000336823F0FC033360336843F04003336094
:10187000AB7BADF80430AB8953B3AA68384601A9F5
:10188000FFF7A0FD1630ADD0384601A9FFF78EFE58
:101890000446002895D10146384602F068FD04460A
:1018A00000288ED1024608F1EC01384602F00EFB0A
:1018B000EB6930469847736943F00103736180E731
:1018C00001F0E4F8001B4845A7D96FF00A0478E757
:1018D000ADF80630EB7B3846ADF808302B7C01A91B
:1018E000ADF80A30AA6802F0C7FACDE7E40B002091
:1018F000AC4D000880FC0A00F8B50E464768056943
:101900004FF0FF324FF0FF333B487C6802F04CFC55
:101910004FF0FF324FF0FF33284602F045FCD7E985
:101920000032934214BF0E230023062E4FEA860294
:101930001DDC00212A445167C2F8C810D4F80022E7
:10194000334442F00102C4F8002204EBC302C2F89F
:1019500040124FF0FF31C2F844120121D4F81C228A
:1019600001FA03F322EA0303C4F81C321CE000214D
:10197000073E07332A4403EB660316F0010F11629A
:10198000516703F148011DD0D269D4F80002B2FAC0
:1019900082F240F00100C4F80002184804EBC101D3
:1019A00052094860002AD8D1D4F80032284623F0E2
:1019B0000103C4F8003202F0F9FBBDE8F8400E481C
:1019C00002F0F4BB0C2E0DDC526AD4F80002B2FA1D
:1019D00082F240F00100C4F800020848520944F8BD
:1019E0003100DFE7D4F8002242F00102C4F80022FF
:1019F000024A44F83120B0E7E40B00200000FFFF6A
:101A00002DE9F843056946684FF0FF334FF0FF3288
:101A10002846376802F0C8FB95F8ED3063BB706A62
:101A200080B93B68DFF8589023F001033B6001F078
:101A30002DF880467C6814F001040FD1012385F84D
:101A4000ED3005E083681B68984704460028E8D01D
:101A5000284602F0ABFB2046BDE8F88301F016F8FB
:101A6000A0EB08004845E5D9706A10B183685B684F
:101A700098476FF00404EBE76FF07704E8E700BFE6
:101A800080FC0A000E4B18680B68052B0BD883B13D
:101A9000023B032B03D8DFE803F01102020300200E
:101AA00010600020704723F00401182904D0142B83
:101AB000F6D06FF0850070474008F1E70148EFE786
:101AC000AC00002000127A0070B502F0EBFC00F0D0
:101AD000F3FF334C334A6368334EC3F30313D35CD1
:101AE00020FA03F5B54202D8304801F017F923680F
:101AF00023F480232360236843F480332360236826
:101B00009803FCD5636803F00C03082B15D12368F8
:101B1000990706D4236843F00103236023689A07DA
:101B2000FCD5636823F003036360636813F00C0F54
:101B3000FBD1636823F0F0036360236823F08073B4
:101B4000236000F037F8236843F080732360236834
:101B50009B01FCD5636823F0F0036360636823F0A6
:101B6000030343F002036360636803F00C03082B74
:101B7000FAD1B54202D90D4801F0D0F80C4B0B4A0E
:101B800000201A60636823F4E06343F480636360B9
:101B9000636823F4605343F40053636070BD00BF77
:101BA0000010024026550008FFA14A0400A24A0482
:101BB000AC000020054A536823F47C1343F4C81397
:101BC0005360536823F48003536070470010024051
:101BD00008B5074802F068FF38B10648FFF74AFB2E
:101BE0000448FEF727FD002008BD6FF01200FBE758
:101BF0004C4E0008F91B00080A2838B50446074D6A
:101C000004D1AB680D2128465B689847AB68034850
:101C10005B68E1B29847204638BD00BF4C4E0008D3
:101C200038B5036904465860084D284602F03CFF69
:101C300040B16168AB6828461B680C31984700EAE0
:101C4000E07038BD6FF01200FBE700BFAC4D00083C
:101C5000F8B51746B7F5001F0C461D4646680269E1
:101C600023D10F2301F0030204329200934043EA90
:101C70009103DAB22C49023251F82220190C02EAFF
:101C8000134391FAA1F2B2FA82F2D340B2689A42B7
:101C900009D12046FFF738FB2046FFF789FB0021DA
:101CA0002046FFF73DFB0020F8BDB7F5800F35D08B
:101CB00020461E49FFF764FB98BB0F2204F0030384
:101CC00004339B009A4042EA9402D3B29B0003F192
:101CD000804303F58033B1689E68100C26EA1246F3
:101CE00090FAA0F2B2FA82F201FA02F23243B5F1AE
:101CF000806F9A600ED0B5F1C06F0DD005F17E43B4
:101D00005942594149002046FFF70AFB2046FFF798
:101D1000E9FAC8E70121F6E70321F4E76FF085004F
:101D2000C2E76FF00F00BFE700000140BD450008AB
:101D30002DE9F34703680446C3F38F25C3F38923D2
:101D4000FBB101228A4223D3334A15F0010F906977
:101D500040F00100906192694FEA132002F0010205
:101D60000192019A2D4AC3F3440300FA03F009BF1C
:101D70005368D369034343F0E06316BF03435360E2
:101D8000D361274F04EBC106A6420ED1002007E025
:101D900054F83200C0F38920984204D06FF0150047
:101DA00002B0BDE8F0870132CCE7D4E9002512F09B
:101DB00003090FD145F04105C2F3870AC2F383122C
:101DC0000A2AEBD857F82280B8F1000F13D16FF030
:101DD0001200E5E7B9F1020FEED0B9F1010F07D11A
:101DE00015F4C07F0CBF45F0020545F00405E3E79C
:101DF00045F00105E0E7404602F056FE0028E6D037
:101E00004B462A4640460AF00F0102F07CFC0028AF
:101E100004F10804B8DAC3E70010024000000140F2
:101E2000A851000840291AD011D8042919D0102926
:101E300019D0012908BF002318BF06230C49026AE4
:101E4000C85C02238340134023FA00F07047B1F5C9
:101E5000807F0AD0B1F5806F08BF0523ECE703232C
:101E6000ECE70123EAE70223E8E70423E6E700BF03
:101E7000CB5400082DE9F04701F1FF3C88B0BCF1DC
:101E8000030F1F46BDF84060446800F2DF80B2F5E2
:101E9000803F00F2DE80704B042953F82C5006F48A
:101EA000807A0DD1BAF1000F40F0D0802846D1469B
:101EB000A2B92268136A23EA00031362002074E0C7
:101EC000664B53F82C90BAF1000F05D0B9F1000F12
:101ED00000F0BC804846EBE72846E9E7A36863BB0F
:101EE00002F1FF38216806F001060B6A760030EA3D
:101EF000030339D1402800F0A1802DD8042800F038
:101F00009F80102800F09E80012808BF002318BF82
:101F1000062353480A6AC05C0223834022EA030373
:101F200086401E434F4B0E6253F82C3039462068D2
:101F300098472368C3F82C80C0E7102B01D1013FDC
:101F4000CEE723F04001202902D0402B40F08180D1
:101F50007F084FEA5208C5E7B0F5807F74D0B0F52E
:101F6000806F08BF0523D2E7684602F092FD602328
:101F700000930123BAF1000F1AD00293059623684B
:101F800029461B6A35EA03030CBF01230023019392
:101F90002068FFF747FF049003976A4629462068A8
:101FA00000F0F4FDB8B16FF0040008B0BDE8F087B0
:101FB00001930496B9F1000FEED0236849461B6ADD
:101FC00039EA03030CBF0123002302932068FFF7C3
:101FD00029FF0590E0E72268402D136843F0800355
:101FE0001360226822D019D8042D21D0102D21D0C1
:101FF000012D18BF06201C4B1832195C1B4B55587D
:10200000185C082383402B4353502368C3F82C806B
:102010002268536943F0010353614FE7B5F5807FB0
:102020000AD0B5F5806F08BF0520E2E70320E2E79C
:102030000120E0E70220DEE70420DCE7032368E775
:10204000012366E7022364E7042362E76FF01500CB
:10205000ABE76FF08500A8E7885200087C520008C3
:10206000CB5400086C520008D9540008D254000820
:102070002DE9F04186B0066944682E4D284602F0ED
:1020800013FD00284FD0D5F8088004F10C0739461D
:102090002846D8F800309847002804DBD8F80C30E0
:1020A00023B96FF0570006B0BDE8F08139462846E5
:1020B00001AA98470028F6DBD6E90101019B5B00E5
:1020C00033608368DB6803B198470021606901AA27
:1020D00002F02EFB0028E6DB019B0022197918682C
:1020E000FFF726FE0028DEDB01A802F0C9FC6368CA
:1020F00001A9ADF80430A36802930023CDE90333AE
:10210000206800F013FD88B923680B4A0020934231
:1021100002BF5A6C42F400425A642268136843F0CA
:1021200001031360BFE76FF01200BCE76FF004001B
:10213000B9E700BFAC4D0008002C0140F7B50646DA
:10214000446807693648786002F0AEFC20B96FF049
:102150001205284603B0F0BD7868616883681B6883
:10216000984705460028F4D1014601AAE06902F02B
:10217000DFFA002801DA0546EBE7019B2A461979C8
:102180001868FFF7D5FD0028F5DB2268D36823F433
:102190000053D360B86802F087FC0028D7D0D7E995
:1021A00002018368DB6803B198472268D36843F073
:1021B0000C03D3602369022B29D0012B2CD14FF4BF
:1021C00080534FF4C06021680343CA6822F4B052C0
:1021D0001343CB600B6923F440530B61237B2BB17A
:1021E00073681A68536943F4407353613046396821
:1021F00002F005FB237D23B12268536943F00803F5
:1022000053612268D36843F40053D360A1E74FF4CD
:1022100080534FF48060D6E700231846D3E700BF11
:10222000AC4D00082DE9F0410B790C46012B4568B7
:10223000066926D09A1E57425741BF02627994F828
:102240000680022A96BF4C494FF4005C31F812C058
:10225000B8F1040F12D094F807E0ABB9BEF1010F4A
:1022600022F0020226D04AB1B8F1020F06D919466F
:10227000BEF1000F32D0BEF1010F22D06FF0850009
:1022800077E04FF4C067D9E7033BBEF1010FDBB243
:102290000CD1012BF2D94FF4407112F0FD0FEDD0AB
:1022A000B8F1020FEAD94FF48053E1E7012BE5D9E9
:1022B0000021F2E7002AE1D0B8F1020FDED94FF495
:1022C00040712A68DFF8B4E0724507D0AEF5744E6D
:1022D000724503D00EF5806E7245CFD1D5F800E07F
:1022E000DEF80C2022F40052CEF80C204268D2F81E
:1022F00000E0DEF80C2002F4C06297421FBFDEF857
:102300000C2022F4C0623A43CEF80C2042681768D1
:102310003A6902F4405294451FBF3A6922F4405290
:1023200042EA0C023A6142681768FA6802F4805285
:102330009A421FBFFA6822F480521343FB6043683D
:102340001A68536903F4407399421FBF536923F419
:1023500040730B43536121683368994203D002F004
:102360004EFA2368336000202A68D36843F4005390
:10237000D360BDE8F08100BF6C5300080038014015
:102380002DE9F341056946682D4C204602F08CFB8F
:10239000002852D0A36820461B68F168984700289F
:1023A00048DB0021706801AA02F0C2F9002841DB75
:1023B000019B002219791868FFF7BAFC002839DB65
:1023C0000126AC680834D5E9023203EBC203A4F15C
:1023D0000802934204D8284602F034FB002029E08A
:1023E00054F8080C02F060FB38B354F8080C14F8E9
:1023F000041C34F8023CD0F810C0DA07DCF8007096
:1024000054BF43F4B01383F4D01323F4801206FABC
:1024100001FEDB07D0F808804CBF4EEA070727EA29
:102420000E07CCF80070D8F800309847002804F167
:102430000804C8DA02B0BDE8F0816FF01200F9E7D5
:10244000AC4D00082DE9F04F9846436881460F4691
:10245000924604691E688BB012B9B8F1000F33D0F0
:102460007B689A0434D44FF0FF324FF0FF3304F10D
:10247000100000F0D3FE6760DFF8C4E002ADBEE8F4
:102480000F000FC59EE80F00D9F810B085E80F00C7
:10249000DBF800107B688F42D9F804C0C3F3451203
:1024A00000F09580082ADCF8005018D0102A16D0C9
:1024B0006FF0850823685B6813F4005304D16360F0
:1024C00004F1100000F086FE40460BB0BDE8F08F2E
:1024D000A369002BC7D163689F42C4D1CCE71B041A
:1024E000E6D41848DCF80C108368DB6813B96FF089
:1024F0000408DFE701AA98470028F8DB0123019AC6
:10250000396822FA03F0884205D90133092BF8D142
:102510006FF01508CEE72A680AA922F040022A6067
:102520002A6801EB830353F8243C22F0380213435A
:102530002B607B68980707D42B6823F0020306E022
:1025400054500008AC4D00082B6843F002032B6088
:102550007B6813F0040F2B6814BF43F0010323F0D2
:1025600001032B602B6823F444432B607B6813F03A
:10257000100F2B6814BF43F0800323F080032B60FF
:102580002B6823F400532B60FB68002B00F0CF80F6
:102590002B6843F400732B606B6823F004036B60BB
:1025A0007B6813F0010F2B6814BF23F4827343F48C
:1025B00082732B607B68C3F34513082B2B680CBF19
:1025C00023F4006343F400632B60CBF800707B6856
:1025D0002046C3F34513082B0CBF012302234246B8
:1025E000514602F0ECF9336843F040033360D9F808
:1025F0001050286848B1C3683BB101210C3002F08B
:102600000DFA2B68586900F0AFFB23685B68D907A7
:1026100000F1D380B2689207FCD5C3F34513082BB1
:10262000626C40F09B80002A00F09080A36C03B1A4
:102630001378DBB23373A36CA3B1013BA364002B0B
:1026400040F08680636B08336363A36B013BA36335
:10265000012304F1480204F1380104F1340002F0CE
:1026600098F96064B368DF07FCD5D4E913312268B8
:102670005268C2F34512082A40F08C80327BD2B2F5
:102680000BB101B11A70236DA3B1013B2365002B7F
:1026900040F0E980E36B0833E363236C013B236480
:1026A000012304F1500204F1400104F13C0002F066
:1026B00070F9E064B36813F0700F00F0E380B36862
:1026C000590605D5F3680193019BB3680193019BFB
:1026D0006FF00408D9F80430D9F810701D683B6811
:1026E0006BB1DA685AB1596811F4805607D158694C
:1026F00000F03AFB386831460C3002F08FF92B6855
:1027000003F48273B3F5827F02D1AB681A06FCD45E
:10271000AB689B0606D5AB680293029B2B6823F03F
:1027200040032B602B6823F040032B60C2E67B68DC
:1027300013F0010F2B6823F400737FF42CAF43F4E4
:1027400080232B606B6843F0040328E7134670E78F
:10275000636C002B86D00133636483E792B1A36C72
:1027600003B11388B381A36C002B3FF47BAF013B13
:10277000A3644BB9636B08336363A36B013BA3632F
:10278000022366E71346EDE7636C002B3FF46AAF64
:102790000233E1E7F2680BB101B11A80236D002B1F
:1027A00088D0013B2365002B66D1E36B0833E363DC
:1027B000236C013B2364022373E7B26895074DD570
:1027C000A26C002A4AD0C3F34513082B626C30D1A7
:1027D00013783373A36C93B1013BA3641BBB636B8E
:1027E00008336363A36B013BA363012304F1480235
:1027F00004F1380104F1340002F0CBF86064B368EE
:10280000D8077FF557AFE36C002B3FF453AF226D31
:10281000002A3FF44FAF22685268C2F34512082ADB
:1028200028D1327B2EE7636C002BE8D00133636440
:10283000E5E71388B381A36C002BE0D0013BA364D0
:102840003BB9636B08336363A36B013BA363022350
:10285000CCE7636C002BD2D00233E8E7736823F037
:1028600080037360CBE7E36C002B3FF423AF0133AD
:10287000E3641FE7F26890E7E36C002B3FF41AAFC4
:102880000233F5E7A36C002B7FF4BFAE236D002B62
:102890007FF4BBAE98461DE74FF0E02310B59A6970
:1028A0001969986911F4803F084B094901D18242A6
:1028B00006D21A680C6822441A604FF0E0221269AE
:1028C0001B680A681344181A10BD00BF480C00208A
:1028D0004C0C00201022094B002083F8232041F6E5
:1028E0001F42074B1A60074B18604FF0E0235A61F4
:1028F00098611A6942F007021A61704700ED00E022
:102900004C0C0020480C002010B5FFF7C5FF104903
:10291000104B0868D3E90042001942F10002C3E9F4
:10292000000200230B604FF4E1530B4AD2E900414F
:10293000001BB0FBF3F043431B1941F10001C2E956
:10294000003100F0DDFFBDE81040FEF727BB00BFFF
:10295000480C002068090020600900202DE9F041A2
:10296000364F00295ED0421C0AD14FF0E022136995
:1029700023F0010313614FF07F433B60BDE8F0811A
:102980003E68012854DD40F61918404501DC00F18D
:10299000FF384FF01003EFF3118583F31288BFF374
:1029A0006F8FFFF779FF4FF0E02325499A69D1E94E
:1029B000004300194FF0000443F10003C1E9000394
:1029C000204B1C60204B1B68C41A34D44FF4E15CCC
:1029D0000CFB084404F5E0541F34B4FBFCF4181A53
:1029E0000CFB0400B0F5806F25D9184B984228BF26
:1029F00018464FF0E023386001389C695861002088
:102A0000A2429861A2EB040338BF9B19D1E90002EE
:102A10001B1842F10002C1E9003285F31188BFF3AF
:102A20006F8FABE7431C3E68ABD140F61910AEE7A1
:102A30004FF00008ADE74FF48060DAE74C0C00205F
:102A400068090020480C00206009002020DFFF00FA
:102A500038B54FF01003EFF3118583F31288BFF3FD
:102A60006F8F084B1C68084B1B68E41AFFF714FFB4
:102A700085F31188BFF36F8F4FF4E1532044B0FB0F
:102A8000F3F038BD680900206009002038B54FF028
:102A90001003EFF3118583F31288BFF36F8F054B9B
:102AA0001C68FFF7F9FE85F31188BFF36F8F204490
:102AB00038BD00BF6809002030B5184B87B002ACA4
:102AC00003F11005224618685968083303C2AB4267
:102AD0001446F7D140F201231149ADF804304B6898
:102AE00003F00C02082A17D1C3F3834218326A4458
:102AF000DB0312F8100C0CD54B680A4AC3F34043B1
:102B0000504318336B4413F8143CB0FBF3F007B098
:102B100030BD054B5843FAE70248F8E73655000840
:102B20000010024000127A0000093D00164A0368B6
:102B300090420AD0B0F1804F07D0A2F59432904273
:102B400003D002F58062904217D14A6823F07003E7
:102B50001343CA6823F44073134303608B68C36252
:102B60000B888362084B984201D10B690363436968
:102B700043F0010343610020704703608B68C36228
:102B80000B888362F3E700BF002C0140B1F5807F22
:102B900030B500F08F8005D8012929D0102957D0F1
:102BA000012030BDB1F5805FFAD1036A23F4805370
:102BB0000362036A4468C169156821F4E64141EA89
:102BC0000521156923F4005343EA0533556823F4BE
:102BD000805343EA0533504DA84202BF956924F45F
:102BE000804444EA85144460C161D26802642CE0E8
:102BF000036A23F001030362036A4168846915686C
:102C000024F073042C43156923F002032B43556809
:102C100023F001032B43404DA84212D1556923F004
:102C2000080343EA8503956823F0040343EA850318
:102C3000956921F480712943D56921F4007141EA35
:102C4000450141608461D268426303620020A8E7C5
:102C5000036A23F010030362036A416884691568FC
:102C600024F4E64444EA0524156923F0200343EAEA
:102C70000513556823F0100343EA0513264DA842B7
:102C800013D1556923F0800343EA8513956823F037
:102C9000400343EA8513956921F4806141EA850187
:102CA000D56921F4006141EAC50141608461D268BF
:102CB0008263CAE7036A23F480730362036A41688C
:102CC000C469156824F073042C43156923F4007358
:102CD00043EA0523556823F4807343EA05230E4D28
:102CE000A84213D1556923F4006343EA852395680C
:102CF00023F4806343EA8523956921F4805141EAF6
:102D00000511D56921F4005141EA45114160C461C2
:102D1000D268C26399E700BF002C0140D8B10F4BC5
:102D2000984216D80E4B984294BF002001200D4ABD
:102D3000136823F0070303431360136803F00703CA
:102D400098421CBF136803F00703C01A18BF012084
:102D500070470220EBE70120704700BF006CDC02E7
:102D600000366E010020024038B5044678B1FFF706
:102D70008DFE054606480023A4FB0001054AFDF729
:102D8000B7F90446FFF782FE431BA342FAD338BDCE
:102D900000A24A0440420F00104B70B553F8204087
:102DA000013053F82060A64200D870BDD4E9003548
:102DB00095B153B12846984738B10028B8BF404272
:102DC000FF28A8BFFF20EB681870EA68537843F02B
:102DD000010353700834E6E79847FBE754530008B3
:102DE000012208B5094B03201A70FFF7D5FF00F048
:102DF000ADFE0420FFF7D0FF00F0EAF8FDF778FB06
:102E0000034A137B23F00103137308BD850C0020D4
:102E1000E009002008B50348034A0021121A01F016
:102E200075FE08BD60090020880C0020702370B575
:102E3000194E012203FB0066002386B0CDE904236E
:102E40000F220193CDE9023214230446134D144995
:102E500003FB005501EB0021124B4FF4807230460A
:102E6000009500F08BF8737B2C7423F004037373CC
:102E70000D4B013403EBC4236B60EE60BFF35B8F3B
:102E80000A4B53E8001F013143E80012002AF8D131
:102E9000BFF35B8F06B070BD70090020540C00209A
:102EA00088140020154B0008880C0020500C0020CE
:102EB00080B50020A2B0FFF76FFF294B83F308888D
:102EC000284C00256369284E43F400736361F023A6
:102ED00084F82230E57725766576A57684F820504B
:102EE000636A224F43F4E0236362FEF779F9FDF74A
:102EF00071FF4FF0FF33A362E36240F20113ADF8BC
:102F0000243006ABB3601F9501F0CDFD0120FFF723
:102F100043FF0220164CFFF73FFF00F0ADFB154BBF
:102F200074610593012314494FF48062CDE9035382
:102F300020463B46CDE90155009500F01FF80646B6
:102F4000627B204622F00402627301F044FE2846B0
:102F5000FFF76CFF3A4631462046FDF7F9FF00BF08
:102F60008814002000ED00E0540C0020E12D000842
:102F7000E009002047550008881500207FB50C9E09
:102F800000F1580506730426C0E9165500250446CD
:102F9000467307320B9E22F0070286738E180A9A38
:102FA000C0E906558560C5730292099A0192089A94
:102FB00000923246FDF7B0FF044B65659B6803B194
:102FC0005B6E3046636604B070BD00BF540C0020D9
:102FD000F0B5224C224D87B02646AE4204F12C04B7
:102FE0000BD300F019FB0A261C4C1E4FAC4220D319
:102FF00007B0BDE8F04000F023BB54F8043C059353
:1030000054F80C3C049354F8103C039354F8143CCB
:10301000029354F8183C019354F81C3C009354E973
:10302000092354E90B01FFF7A9FF54F82C3C5E6516
:10303000D2E7626A531C09D022EAE27282FB0623BD
:1030400052EA0301206803D100F0C8FA2C34CDE71E
:103050003946183000F0DEFBF8E700BF1C500008CE
:103060001C5000085F4C00082DE9F3410446174648
:103070001E464FF01003EFF3118883F31288BFF35D
:103080006F8FC368334A7BB180689168884219D0DA
:1030900057EA060318D188F31188BFF36F8F6FF0DA
:1030A0000F0002B0BDE8F081916891F90E10013374
:1030B000E36093682161A36088F31188BFF36F8F89
:1030C0000020EEE72169F2E791F90E1090F90E3039
:1030D0006FF07E029942A8BF19469142B8BF1146CF
:1030E0008B422EDD01F022FD054622464146CDE908
:1030F0000076194800F0FCF90028E1D04FF01003E9
:10310000EFF3118683F31288BFF36F8FA068D0B1FD
:10311000236821699C420AD04BB193F90E30994241
:10312000A8BF19466FF07E039942B8BF194601F057
:10313000FDFC40B13146084800F03EFA6FF00A004D
:10314000AFE70025D1E7002DF4D186F31188BFF356
:103150006F8FF3E7540C0020860C002038B583688D
:1031600004466BB3194A926893422CD1C368012B71
:1031700003D9013BC360002038BD4FF01003EFF3CB
:10318000118583F31288BFF36F8F0169806801F0A6
:10319000CDFC204601F067FDA06058B190F90E20EB
:1031A00022610022C26601F016FD2946084800F09F
:1031B00003FAE0E7E06085F31188BFF36F8FDAE789
:1031C0006FF01500D8E74FF0FF30D5E7540C002022
:1031D000860C002038B504464FF01003EFF311853C
:1031E00083F31288BFF36F8F01F03DFD48B10022D9
:1031F000C26601F0F0FC2946BDE83840064800F000
:10320000DBB9D4E902329A4218BF0133A36085F3D7
:103210001188BFF36F8F38BD860C002013B54FF0B7
:103220001004EFF3118184F31288BFF36F8F846869
:1032300044B1013C846081F31188BFF36F8F00209B
:1032400002B010BD52EA030406D181F31188BFF326
:103250006F8F6FF00F00F3E7CDE9002302460248BD
:1032600000F046F9ECE700BF860C0020C3897F2BF5
:1032700012D80A4B1B6863B1094B90F90E201B68EA
:103280009A4209DB437BDB0606D1064BC31A18BF03
:10329000012303F0010070470023FAE77C0C0020B3
:1032A000780C0020700900200122044BC01A044B46
:1032B000C0105843034B1A54704700BF500A0020F7
:1032C000ABAAAAAA860C002070B50E4B0E4C1E7C31
:1032D000182303FB06440546204601F0F6FC0022B5
:1032E0000A4B28469A55FFF7C1FF48B1084B2046C4
:1032F000BDE870401A680749013AD31700F08ABA4E
:1033000070BD00BF540C0020500A0020860C002025
:103310007C0C0020A932000838B50D4D2B4653F81F
:10332000184F9C4200D004B9EC68AB6838B95A7B9E
:10333000D20604D1A26912B9DA897F2A05D89C4243
:1033400002D02046FFF7C0FF23466B6138BD00BFA7
:10335000540C002070B590F90D200146002A437BE3
:1033600004DA03F07F03437301F0FBFB154A4B7B48
:10337000104663F07F034B7350F8183FD4698342C3
:1033800008BF002323B9C1E900042160D1610CE02A
:1033900091F90E5093F90E60B5420ED0AE420CDD9D
:1033A0005868C1E90030016059609068BDE870401C
:1033B000431A58425841FFF7AFBF9C42E3D01B6805
:1033C000E0E700BF540C002070B490F90D30427B50
:1033D000002B29DBD30627D183692BBB134962F06D
:1033E0007F0242730A4652F8184F944218BF234690
:1033F000CC6923B9C0E900242060C8610CE090F9D1
:103400000E5093F90E60B5420AD0AE4208DD5A68FC
:10341000C0E9003210605860002070BCFFF77CBF2C
:10342000A342E7D01B68E4E770BC7047540C00204F
:1034300008B590F90D200146002A437B04DA03F019
:103440007F03437301F08DFB044B9868431A584285
:103450005841BDE80840FFF75FBF00BF540C002093
:1034600070B515461C46064601F08DFBB4F1FF3FD2
:1034700008BFB5F1FF3F08D02A46234606F11800E1
:103480000249BDE8704000F0C5B970BD5F4C00084E
:1034900038B54FF01003EFF3118583F31288BFF3B3
:1034A0006F8F104B104A9C681068A04206D1FFF73E
:1034B0000BFF85F31188BFF36F8F38BD00211B7C94
:1034C00011600A4AD35C002BF3D02046FFF7CEFEF2
:1034D0000028EED0637BDB0602D12046FFF73AFFDF
:1034E0002046E4E7540C0020740C0020860C0020D9
:1034F00070B50C480C4D86680C462E601146DDE90F
:1035000004234FF01006EFF3118586F31288BFF302
:103510006F8F8068FFF7A4FF2046BDE87040FDF77D
:10352000ADBC00BF540C0020740C0020F8B504465C
:103530004FF01003EFF3118683F31288BFF36F8F00
:10354000437B49B2DA0619D18569BDB903F07F031F
:10355000437301F006FB437B164A63F07F0343731A
:103560001346817353F8180F984218BF0546D06967
:103570005DB9C4E900300460D46111E00020A1739A
:1035800086F31188BFF36F8FF8BD95F90E70B942BD
:103590000BD08F4209DD6B68C4E900531C606C607E
:1035A0000120FFF7B9FE0120EAE7A842E1D02D682B
:1035B000DEE700BF540C002049B9EFF3058030B9B5
:1035C000054B5A699B689A4201D0FDF757BC81F3BD
:1035D0001188BFF36F8F7047540C002010B54FF067
:1035E0001002EFF3118482F31288BFF36F8F427BD6
:1035F000510704D484F31188BFF36F8F10BD22F0FC
:1036000004024273FFF7E0FE2146BDE81040014886
:10361000FFF7D2BF870C00204FF01003EFF31181AA
:1036200083F31288BFF36F8F044B9A68D37B013BFF
:10363000D37381F31188BFF36F8F7047540C002050
:1036400010B54FF01003EFF3118483F31288BFF32A
:103650006F8F084B00209A68D37B0133D373FFF739
:103660005BFE84F31188BFF36F8FBDE8104001F05B
:1036700022BB00BF540C0020024B03F11802C3E927
:1036800006227047540C0020014B9868704700BF19
:10369000540C00202DE9F04104464FF01003EFF3E5
:1036A000118683F31288BFF36F8F037BD9070BD585
:1036B00086F31188BFF36F8F404080F311884FF07D
:1036C000040002DFBDE8F081437B1A0704D586F3CE
:1036D0001188BFF36F8FF5E723F0200242F0080155
:1036E000D20920D14173A36813B1204601F041FAF9
:1036F00004F1180001F0E9FA4FF0000804F158074E
:10370000A56DBD4200D0B5B90120FFF705FE104BF5
:103710009B68A342DBD1EFF30583002BD7D1304662
:10372000FDF7ACFBD3E703F05F0343F008034373FB
:1037300001F017FAD7E7284601F01BFA05F1180047
:1037400001F0C3FA2846C5F86C80FFF73DFED7E7C5
:10375000540C002008B50648064A0749121A01F021
:10376000D7F9BDE80840054A0549064801F0D0B937
:1037700000000020600900209455000800000000AF
:103780009455000800000020034B1B680BB9FFF79D
:103790005FB90020704700BF800C002010B50E4BB1
:1037A0001C689C4204D1FFF7EFFF6FF0004010BD92
:1037B000FFF7EAFF002CF8D0D4E904321B1A62EBC1
:1037C000E072B3F1004F72F10001EEDA002AACBFF3
:1037D00018460020EBE700BFB000002030B570B104
:1037E0000B4B5B6898420AD0036843B1D3E90421CC
:1037F000D0E90445121941EB0501C3E90421D0E9E0
:10380000003213605A600023C0E9003330BD00BFAE
:10381000B0000020B3F1FF3F08BFB2F1FF3FF8B5A1
:1038200004461D4616465CD081604FF01003EFF34E
:10383000118783F31288BFF36F8F013275F1FF3365
:1038400024DA6FF001032C49D1E900209B1A4FF0D4
:10385000FF3262EB00009E1B60EB0500012E70F151
:10386000000301DA01260020C4E90460234ED6F8E3
:1038700000C07568B44508BF4FF0000CBCF1000FE4
:103880000DD1C4E900652C6074601CE0FFF77CFF7B
:10389000013645F10005361845EBE070E4E7DCE958
:1038A0000420D4E90431934271EB000E1ADAD21AE3
:1038B000DCF8043060EB0100CCE90420C4E900C36B
:1038C0001C60CCF804403368B34206D09C4204D15B
:1038D000FFF764FF0021FFF741F887F31188BFF37A
:1038E0006F8FF8BD9B1A61EB0001AC45C4E9043150
:1038F000C7D0DCF800C0C1E7680A0020B000002093
:103900002DE9F84F4FF01003EFF3118C83F3128879
:10391000BFF36F8FDFF8B0A0DFF8B0900024C9F8D4
:103920000000DAF800000025504508BF0020284FAD
:10393000E046D7E90021D9F8003080B3D0E9046C23
:103940004FEAE37EB3427EEB0C0B05DAF61A6CEB22
:103950000E04C0E9046422E0B21841EBE671C0E94C
:103960000445C7E90021FFF739FF88F31188BFF349
:103970006F8F836898474FF01003EFF3118883F33C
:103980001288BFF36F8FD9F80030DAF800009B1B64
:103990005045C446C9F80030CAD1D7E900210024F7
:1039A0009A1841EBE373C7E90023C9F80040FFF719
:1039B000F5FE2146FEF7D2FF88F31188BFF36F8F23
:1039C000BDE8F84FFFF764BDB0000020800C002078
:1039D000680A002010B54FF01003EFF3118483F351
:1039E0001288BFF36F8FFFF7CFFE0346054AD2E977
:1039F0000001181841EBE37184F31188BFF36F8F56
:103A000010BD00BF680A0020F8B504464FF010034F
:103A1000EFF3118783F31288BFF36F8F026822B12F
:103A200087F31188BFF36F8FF8BDD0E90A36581CB1
:103A300046F10001022871F1000127D3012B76F134
:103A40000001BCBF012316465D1E46F1FF3601F0A2
:103A500052F9013041F10001401946EB0101012802
:103A600071F100013ADB01F046F9013041F100014A
:103A70006FF00102401946EB01034FF0FF31121ABB
:103A800061EB030320461849FFF7C4FE236B0133A3
:103A90002363236A73B187F31188BFF36F8F2046C6
:103AA000236A98474FF01003EFF3118783F31288CE
:103AB000BFF36F8F54F8185FA542B1D0002DAFD07F
:103AC000284601F098F80023EB6687F31188BFF3CE
:103AD0006F8F2846BDE8F84001F07DB86FF0010215
:103AE0004FF0FF33CEE700BF093A0008B3F1FF3FC4
:103AF00008BFB2F1FF3F2DE9F047DDE90867054651
:103B00001C46914698461CD0531C74F1FF3309DBC8
:103B1000012A74F10003BCBF0122002412F1FF3915
:103B200044F1FF38284601F0D0F80023C5E90A67C0
:103B30002B634A4643462846BDE8F0470249FFF753
:103B400069BEBDE8F08700BF093A0008014800F0EF
:103B500037B800BF4F55000838B5064C064DAC428B
:103B600001D3002038BD2046D4E9011201F0C5F888
:103B70001434F4E760090020600900207047034610
:103B80000A4619790123006803FA01F103691B68E9
:103B9000194218BF82F0010212B18368DB6818472E
:103BA00083681B69FBE743F2AA70FCF70DBC002099
:103BB000FCF70ABC09B9FCF70FBD7047002070473D
:103BC0000FB407B504A951F8040B0191FCF738FDB7
:103BD00003B05DF804EB04B07047044608B508462E
:103BE00011461A46A047FFF74FFDFDF72DFB00EBEE
:103BF000C100408840087047F8B50346FFF7F7FF5B
:103C0000B0FA80F0C0F11F0003EB800CDCF810600C
:103C1000CA00171D0C4606328DB256B9012101FAB1
:103C200000F0D9680143D960CCF81040DD539D52B3
:103C3000F8BDF1000431585AD85303EBC0009E522E
:103C4000C5805D52F4E7F0B40446043AC81D11443F
:103C500020F0070021F007010E1AF308B3FA83F2EF
:103C6000206000270446C2F12405AD0083600735BB
:103C700044F80C7FC2F12002E90804EB820244F808
:103C8000047F9442FBD14A0042F0010242805A1A5A
:103C9000550000EBC10407806580841920F83110BD
:103CA00000EBC303678082535A8842F001025A80B6
:103CB000F0BCFFF7A1BF2DE9F84F9A46D3788046B4
:103CC0006F2B0F461546A3F1410B29D024D8582B52
:103CD0000CBF10260A26DDF8289032460023404605
:103CE0003946FCF705FA092AD4B21ED83034B0455B
:103CF000E4B277F1000709F8014D01D3D14511D89D
:103D00002B789B0605D5082E15D1AB7843F0080318
:103D1000AB704846BDE8F88F03F0F703702BD7E788
:103D20000826D8E780460F46D7E7BBF1190F94BFA6
:103D300037345734DBE7102EEBD1AB7843F0100368
:103D4000E6E72DE9F0410746884615461E4614462B
:103D5000B44205D30EB1601B08E02378002BFAD0E3
:103D6000414614F8010BB8470028F1DABDE8F081AC
:103D700070470020704700F0AEBE0146006800F0BA
:103D8000AABE00210120FFF7F6BF08B5FDF75AF8DB
:103D9000BDE80840FDF702B9034600201A5C02B9ED
:103DA00070470130FAE710B5431E0A44914200D132
:103DB00010BD11F8014B03F8014FF7E70346C9B2F4
:103DC0000244934200D1704703F8011BF9E74FF01A
:103DD000FF307047034600201A5C0AB1884200D1C8
:103DE00070470130F8E708B5062201210020FDF7F1
:103DF0006DFA002206201146FDF70EF80121072278
:103E00000846FDF763FA002207201146FDF704F883
:103E1000082201210220FDF759FA0022082011464C
:103E2000FCF7FAFF092201210320FDF74FFA0022D7
:103E300009201146FCF7F0FF0A2201210420FDF7BA
:103E400045FA00220A201146FCF7E6FF0521172259
:103E50000846FDF73BFA002217201146FCF7DCFF6D
:103E6000282206210A20FDF731FA002228201146D7
:103E7000FCF7D2FF002008BD2DE9F3410E461446A1
:103E80004D88B1F80480CF88836801A99B6A984760
:103E900078B905EB08033B4403FB04440198B0FBED
:103EA000F4F43481A4B203FB0444B0FBF4F304FB48
:103EB000130002B0BDE8F08110B50C46236811462E
:103EC0001BB1626898470023236010BD43681B68DC
:103ED00029B1006990F8ED0050B9042008702AB1AA
:103EE0009969090C11709B691B0E53700020704773
:103EF0009869400701D50320F0E79869800701D54C
:103F00000220EBE7986910F0010018BF0120E5E7F7
:103F10000B2300200B607047436800209B6A0B60F6
:103F2000704700290CBF0E200720704710B543686A
:103F300004691B68C4E939125A6919B922F4E062AC
:103F40005A6110BD42F4E062FAE7002210B5114652
:103F500004461420FCF760FF1420FCF74FFF0022FA
:103F600013201146FCF758FF1320FCF747FF0022EF
:103F700016201146FCF750FF1620FCF73FFF63693F
:103F800043F4044343F01303636110BD2DE9F04390
:103F900006464FF00009436807691C6885B0E3686E
:103FA0009B0703D1E36805B0BDE8F0831022002130
:103FB0006846D4F8B451FFF701FFD4F8B031C5F327
:103FC000072513F0040FD4F8B021009B33D0D2089A
:103FD00062F31C0300939DF8053043F001038DF854
:103FE0000530D4F8B0319A0742BF9DF8053043F050
:103FF00002038DF80530D4F8B431062D03F00F0319
:104000008DF80430D4F8B8310293D4F8BC3103935E
:1040100016D807EB8505D5F87490D5F8C880B9F1A6
:10402000000F03D0424669463046C847E36843F074
:104030002003E360B3E7520D62F31C030093D0E763
:10404000222D9EBF07EB8505D5F82090D5F874800A
:10405000E5E7F8B5436806461C680769A569A368E3
:1040600005F0040503F001032B4317D0A36898075C
:1040700058D4A368190757D4A3685B0757D4002DF9
:104080000CBF6FF004026FF07102A368304643F07A
:104090000103A36007F12401FFF70EFFA36803F4F7
:1040A00080732B4317D0A368980543D4A3681905E0
:1040B00042D4A3685B0542D4002D0CBF6FF004020C
:1040C0006FF07102A368304643F48073A36007F178
:1040D0002C01FFF7F1FEA36803F480332B4317D0C4
:1040E000A36898032ED4A36819032DD4A3685B0397
:1040F0002DD4002D0CBF6FF004026FF07102A36885
:10410000304643F48033A36007F13401FFF7D4FE57
:10411000A36813F0E05F1DD007F11400BDE8F8407C
:10412000FFF758B80022B0E76FF00402ADE76FF078
:104130000F02AAE70022C5E76FF00402C2E76FF0A2
:104140000F02BFE70022DAE76FF00402D7E76FF053
:104150000F02D4E7F8BDFFF77CBF2DE9F3414368B8
:1041600004461E6873685B071BD5FFF772FF25695D
:104170000DF103012046D5E9397801AAFFF7A6FE23
:104180009DF8031095F8EC308B4206D085F8EC10C2
:104190001FB143462046019AB847736843F00403B1
:1041A000736002B0BDE8F081FEF75EBFFEF7D6BFD8
:1041B0002DE9F0410569D0F804804FF0FF33064641
:1041C0004FF0FF322846D8F80070FFF7EDFF95F862
:1041D000ED3083B33846FDF7BBF9041E2EDB6FF0DC
:1041E0007202304605F12401FFF766FE6FF072029D
:1041F000304605F12C01FFF75FFE30466FF072028A
:1042000005F13401FFF758FEBB6843F0801343F417
:104210000043BB60D8F8240020B183685B689847EE
:10422000044610B9002385F8ED302846FFF7BEFF9D
:104230002046BDE8F0816FF07704F6E76FF00404E4
:10424000F3E72DE9F84F984643680D461C680B7953
:104250001746082BDDF828A00669D4F8089074D812
:104260004B79032B74D896F8ED30002B73D0A369EB
:10427000590773D44FF0FF324FF0FF333046FFF74A
:1042800093FF06F1140B19F0E05F37D019F0806F3F
:104290004BD004F5C07306F124020B99C2F800A0BC
:1042A00051601A68304602F001021A606A79296882
:1042B00012F0010F1A6816BF42EAC10242EA4152E7
:1042C00042F004021A606A79920742BF1A6842F00B
:1042D00002021A6059682A7921F00F0102F00F02D8
:1042E0000A435A60AA689A60EA68DA601A6842F07B
:1042F00001021A60FFF75AFF00200AE03046FFF77C
:1043000055FF3A4643465846FEF788FF18B16FF00E
:104310000A00BDE8F88F4FF0FF324FF0FF33304610
:10432000FFF742FFD4F80890ADE719F0006F04D012
:1043300004F5C87306F12C02AFE719F0805110D0D4
:1043400004F5D07306F13402A7E76FF01500E0E73B
:104350006FF08500DDE76FF07200DAE76FF0710053
:10436000D7E7C1F800A00B9B4B600B68FFDE70B570
:1043700043680D461C6831F00B03066926D196F898
:10438000ED3033BB4FF0FF3230464FF0FF33FFF7D5
:104390000BFFE369E8074CBF43F0804323F0804301
:1043A000E361E369A9074CBF43F0004323F00043F6
:1043B000E36123682A074CBF43F0100323F0100386
:1043C00030462360FFF7F2FE002070BD6FF08500DD
:1043D000FBE76FF00F00F8E70B68A3F11402082A5F
:1043E0009FBF03F1804303F504331A6849689BBFFC
:1043F00000200A436FF085001A6070470B68A3F134
:104400001402082A9FBF03F1804303F504331A689E
:1044100049689BBF00208A436FF085001A6070478F
:104420000868A0F11403082B0AD800F1804000F5B9
:10443000043002684B68934314BF01200220704788
:10444000022803D005280CBF02200120704710B5B8
:104450000B68022B01D0052B21D14A68FF2A1CD002
:10446000D3B203F1804303F504331868C2F3423436
:10447000C2F3042204FA02F220EA02021A60496836
:10448000CBB203F1804303F504331868C1F3024251
:10449000C1F304218A4002431A60002010BD6FF06E
:1044A0008500FBE77047436800205B689B680B60F2
:1044B000704743685B68D86842400A404240DA600F
:1044C00000207047436800205B68196170474368AB
:1044D00000205B6859617047436800205A68D368C0
:1044E0004B40D360704710B503699868F8B18842B3
:1044F00019D1DC680868A142986000D1D86000201A
:1045000008602AB19A680A60DA68996002B9D960CD
:10451000002010E0814206D108682060D8688142FE
:10452000EDD1DC60EBE7044600680028F2D1002AF8
:10453000E8D16FF0150010BD91FAA1F3B3FA83F33F
:1045400070B50D0E0F2691FAA1F1B1FA81F144591F
:104550009B0006FA03F3890024EA03048A402243FD
:10456000425170BD91FAA1F3B3FA83F370B50D0E09
:10457000032691FAA1F1B1FA81F144599B0006FAA0
:1045800003F3890024EA03048A402243425170BDA8
:1045900091FAA1F3B3FA83F370B50D0E042691FAE4
:1045A000A1F1B1FA81F144599B0006FA03F38900A5
:1045B00024EA03048A402243425170BD70B50B4681
:1045C000896821B101255E680C68854001B970BD1C
:1045D0008A682A4002D030464B6898471CB123684D
:1045E00021461C46F2E72346FAE770B5012415463A
:1045F000072904FA01F2C8BF01F007014FEA0223BC
:10460000C5BF8C401C4342EA030444F08064EA07BF
:10461000406822D415F0060204D12146BDE870405E
:10462000FFF78ABF022A01D10422F6E705F4C0751C
:10463000802D6FEA14264FEA14220BD192FAA2F2CF
:104640000123B2FA82F2C168934031400B43082241
:10465000C360E2E7C3683340F9E76B0654BF012249
:1046600009222146FFF768FF15F0200218BF042237
:10467000214605F01805FFF78BFF082D05D1022212
:104680002146BDE87040FFF76DBF0DB90122F7E785
:104690000322F5E713469A0310B518D59C070FD5EA
:1046A0005A072DD52122DC060CD542F0840213F4E2
:1046B000002F44681BD0012364688B40236111E004
:1046C0000122F0E79C06F2D542F48272EFE713F480
:1046D000803207D0DC0611D413F0200F14BF4FF442
:1046E000827202224068FFF780FF002010BD5B034A
:1046F000F8D5012364688B406361F3E78422F1E716
:104700006FF08500F2E7F8B51F46044640680E4694
:104710001546FFF76AFF032F08D1012303FA06F6B7
:104720006368AA055B684CBF1E615E610020F8BD2E
:1047300030B5036813600579046804EBC504A3422F
:1047400002D36FF0010030BD5C798C4201D0083398
:10475000F0E70020F7E74163704781637047C1636A
:104760007047016470474168036949681B680131FB
:10477000B3FBF1F30020C2E9003070474368C1F396
:104780004B101B6801F01F01C05801238B400342EE
:1047900014BF0123002300201370704710B5436835
:1047A000C1F34B101A680123845801F01F018B409C
:1047B00023438350002010BD012210B54368C1F38C
:1047C0004B14186801F01F0123588A4023EA0203A2
:1047D0002350002010BD38B504460D46FFF7DEFF1C
:1047E00029462046FFF7E8FF002038BD036882B065
:1047F0000193019B43680193019B02B0704737B559
:104800000369456858680C4683686968DB68BBB112
:1048100001AA9847002813DB1922019BA4005343E7
:104820006422B3FBF4F1B1FBF2F002FB10131B01A5
:104830003233B3FBF2F32D6803EB00139BB2AB6092
:1048400003B030BD08B54368186803681A0701D57E
:10485000FFF7CCFF03689B0649BF43684FF0FF306A
:1048600000200B7008BD10B54068026813681B0675
:10487000FCD54FF01002EFF3118382F31288BFF3DF
:104880006F8F02681468240604D483F31188BFF381
:104890006F8FEAE7516083F31188BFF36F8F10BD0C
:1048A00008B541680B681A681868C2F3C002C007EF
:1048B000186848BF42F002028007186848BF42F0FB
:1048C00004024007186848BF42F02002C00542BFFA
:1048D0006FF4807042F008021860D00702D50868B3
:1048E000FFF784FF930702D50868FFF77FFF5007A3
:1048F00002D50868FFF77AFF930602D50868FFF72C
:1049000075FF104608BD03691B680B6043681B6890
:10491000DB6803F4C063B3F5806F2FD0A3F5C06CE0
:10492000DCF1000343EB0C030B7143681B681B694C
:1049300003F44053B3F5805F22D0B3F5405F21D03C
:10494000002B0CBF012303234B7143681B68DA68FB
:10495000DB68D20403F4C06316D5002B14BF032315
:1049600004238B71436800201B685B6903F4407368
:10497000A3F5407253425341CB7170470223D3E7F2
:104980000023E1E70223DFE7002B14BF0223032308
:10499000E7E730B50446086808B9106008E0206809
:1049A00045689D4205D3B5FBF3F51560236818688B
:1049B00030BD08302060086801380860EBE770B54A
:1049C000044615461E46E9B941630023A36304F17A
:1049D0004802334604F1380104F13400FFF7D9FFEF
:1049E0006064ADB9E5630023236404F150023346EB
:1049F00004F1400104F13C00FFF7CBFF0023E06429
:104A0000236370BD0B684363002BDED04B68DDE78A
:104A10002B68E363002BE6D06B68E5E703460A46A4
:104A200019790123006803FA01F103691B6819422F
:104A300018BF82F0010212B18368DB6818478368EF
:104A40001B69FBE710B5036804464BB1DA683AB15D
:104A50005869FEF789F9206800210C30FFF7DEFF66
:104A6000A36933B9636004F11000BDE81040FEF79C
:104A7000B1BB10BD08B50069FFF7E4FF002008BD19
:104A800000234FF0FF320380C0E90223436003613B
:104A900070470023C0E90033C0E90233C0E90433A2
:104AA000C0E906337047704740B1C368587810F0CA
:104AB00001001EBF1878B0FA80F0400970474FF02F
:104AC0001002EFF3118382F31288BFF36F8FFEE7BA
:104AD00008B5FFF7F4FFF8B505460E464FF0100392
:104AE000EFF3118783F31288BFF36F8FFEF7CCFDCE
:104AF000314604462846FFF7EBFF87F31188BFF3E2
:104B00006F8F2046BDE8F840FCF79EBBFFF756B913
:104B1000FFF749B908B54FF01002EFF3118382F3A4
:104B20001288BFF36F8FFCF75BF9F4E790F90E3052
:104B30008B4201D0FEF7FABC0020704703460020EC
:104B4000C3E90033C3E9020070473AB18A4205D392
:104B5000C0E90212C0E90000002070476FF01500A4
:104B60007047D0E9003213605A600023C0E9003377
:104B7000704708B5FFF7F5FF437B23F0020343734B
:104B80000023836008BD38B504460D46FEF750FC8F
:104B9000637B43F002036373E5B1A5602B689D421C
:104BA00009D16B68C4E900531C606C6012E06A684C
:104BB0009342F6D01B68002BF3D094F90E2093F9A2
:104BC0000E108A42F3D09142F1DD5A68C4E90032F6
:104BD00014605C6038BD10B54FF01003EFF3118422
:104BE00083F31288BFF36F8FFEF7EEFB84F3118817
:104BF000BFF36F8F10BD08B54FF01002EFF31181B6
:104C000082F31288BFF36F8F83680BB1FFF7B1FF98
:104C100081F31188BFF36F8F08BD38B504464FF09C
:104C20001003EFF3118583F31288BFF36F8F437B7B
:104C300013F0280F0BD183680BB1FFF79AFF637B4A
:104C400051B903F0FB0320466373FEF7BDFB85F308
:104C50001188BFF36F8F38BD03F0EB03F3E7012139
:104C60001838FFF7DABF38B54FF01003EFF31185AE
:104C700083F31288BFF36F8F0468A0420DD034B164
:104C80002046FFF776FF04F1180000F01EF885F3C8
:104C90001188BFF36F8F204638BD0024F7E7034625
:104CA00020B9EFF305820AB9FCF7E8B883F311885D
:104CB000BFF36F8F70474FF01003EFF3118083F352
:104CC0001288BFF36F8FFFF7EABF10B54FF01002E5
:104CD000EFF3118482F31288BFF36F8F03683BB147
:104CE000FEF77CFD002084F31188BFF36F8F10BDA9
:104CF0006FF01500F7E7FEF76DBE10B400F10C047D
:0C4D0000C0E9034410BCFEF79EBF000099
:084D0C0018B4FF7F0100000054
:104D1400C10D000800000000733D00080000000001
:104D2400C91A0008AC4D0008593B000800000000F7
:104D340000000000C04D0008E73D0008D44D000805
:104D4400211C0008E84D0008211C0008FC4D000847
:104D5400211C0008104E0008211C0008244E0008E5
:104D6400211C0008384E00083D2100084C4E000864
:104D7400D11B000800000000D52800080000000036
:104D840071200008604E000871200008744E00086D
:104D940071200008884E0008812300089C4E0008FA
:084DA40089170008B04E000859
:104DAC006A54000800000000080000200C090020D4
:104DBC0000000000E0540008985200089C520008C3
:104DCC001E090020000000002A540008000000000A
:104DDC000000000008090020740A00207754000825
:104DEC0020510008845100080E090020F80B002007
:104DFC008554000834510008845100081009002023
:104E0C00080C0020935400084851000884510008F5
:104E1C0012090020180C0020A15400085C51000855
:104E2C008451000814090020280C0020AF540008FD
:104E3C00705100088451000816090020380C00201D
:104E4C00F1540008AC520008F4520008200900206C
:104E5C0048000020BD540008D451000864520008DA
:104E6C001809002024000020BD540008045200083A
:104E7C00645200081A09002030000020BD540008BC
:104E8C0034520008645200081C0900203C00002029
:104E9C000C55000810530008485300082209002044
:104EAC0058000020535400088C500008D8500008BB
:084EBC000A090020F40A00209D
:104EC40000000000833D000800000000833D00084E
:104ED40000000000833D000800000000833D00083E
:104EE40000000000833D000800000000833D00082E
:104EF4002854000881120008265400088112000872
:104F04002454000881120008225400088112000869
:104F1400205400088112000800000000833D0008AE
:104F240000000000833D000800000000833D0008ED
:104F340000000000833D000800000000833D0008DD
:104F440000000000833D000800000000833D0008CD
:104F540000000000833D0008B04E000857410008DF
:104F6400B04E00088D3F000800000000833D00089B
:104F7400B04E00085B4100081E540008811200086E
:104F840000000000833D000800000000833D00088D
:104F940000000000833D000800000000833D00087D
:104FA40000000000833D000800000000833D00086D
:104FB40000000000833D000800000000833D00085D
:104FC40000000000833D000800000000833D00084D
:104FD40000000000833D000800000000833D00083D
:104FE40000000000833D000800000000833D00082D
:104FF40000000000833D000800000000833D00081D
:105004001C5400088112000800000000833D0008C1
:0850140000000000833D0008CC
:10501C004854000800000000605400080000000024
:10502C0005540008000000004C550008000000006A
:10503C00C1540008000000001955000800000000D1
:08504C000155000800000000FE
:10505400000000000800000010000000180000001C
:10506400200000002800000030000000380000008C
:10507400244E000808000100244E00080700010027
:10508400244E000806000100006400400064004053
:1050940040420F006B030104020000001C000000EA
:1050A400000000024B3F0008B85000080000000058
:1050B40040420F00C050000801000000C850000822
:1050C400020000002D6803000000000030680300A7
:1050D40000000000113F0008011A0008B141000857
:1050E4006F430008AD150008434200082516000868
:1050F400F9180008CD3E00082D3F00088D15000862
:10510400233F0008193F00080100000001000100CE
:105114000100070000000F0007000004FFFF00006B
:1051240000180140040000001800000040000000C6
:10513400FFFF0000001401400300000018000000FD
:1051440020000000FFFF00000010014002000000EA
:105154001800000010000000FFFF0000000C0140D8
:10516400010000001800000008000000FFFF00001C
:1051740000080140000000001800000004000000C6
:1051840095460008A7440008B3440008C544000835
:10519400CF440008D9440008511C0008E744000823
:1051A40000000000384E0008244E0008104E00088D
:1051B400FC4D0008E84D000800000000000000005D
:1051C40000000000000000000000000000000000DB
:1051D4000008004010270000000000001C00000030
:1051E40004000000EC510008F45100080100000024
:1051F400FC510008010000005C6001000000000098
:1052040000040040E8030000000000001C0000004F
:10521400020000001C520008245200080100000093
:105224002C520008010000001C5003000000000084
:10523400000000400F000000000000001C000000FF
:10524400010000004C520008545200080100000004
:105254005C520008010000000C4003000000000044
:10526400751E000867470008574700085B47000899
:105274005F47000863470008040000004000000086
:105284000004000001000000100000000001000004
:1052940000100000001002407D4700089D470008F0
:1052A400B9470008D747000800380140CC5200082D
:1052B40001000000000000000000000000000000E9
:1052C40000000000D4520008180000000040000054
:1052D400DC52000801000000E45200080200000053
:1052E400241001000000000029100100000000004B
:1052F4004548000867480008A1480008252200081E
:1053040007490008384E000804000100003001403D
:105314002853000801000000205300081800000072
:10532400001000003053000801000000385300084A
:105334000200000014000100000000001C00010035
:105344000000000045240008754A0008F5FFFFFF2F
:10535400144D0008144D00087C4D0008844D0008CD
:10536400AC4D0008AC4D00080010000000303E3E7B
:105374003E50574D5F41535F53434B20494E495470
:10538400205245414459204641494C213C3C3C2053
:105394000D0A002A2A2A50574D20494E49542052BA
:1053A40045414459212A2A2A200D0A003E3E3E53F3
:1053B40050492064657669636520257320697320EC
:1053C4006E6F742072656164793C3C3C0A002A2A41
:1053D4005350492064657669636520257320697399
:1053E4002072656164792A2A0A002A2A53504920C6
:1053F4005772697465204572726F72212A2A0D0AE8
:105404000063627072696E74665F7061636B61677A
:105414006500286E696C29000A060505040103016C
:10542400020101010001696E746572727570742D58
:10543400636F6E74726F6C6C6572403430303130EF
:105444003430300063616E5F636F6D6D6F6E006347
:10545400616E4034303030363430300063616E5F1A
:1054640073746D33320072636340343030323130E0
:105474003030006770696F4034303031313830304B
:10548400006770696F403430303131343030006738
:1054940070696F40343030313130303000677069BA
:1054A4006F403430303130633030006770696F40A2
:1054B40034303031303830300070776D0070776DB3
:1054C4005F73746D33320000020406080A0C000096
:1054D40008000000080000000004040472657365FD
:1054E400742D636F6E74726F6C6C65720073657289
:1054F40069616C403430303133383030007561725A
:10550400745F73746D3332007370694034303031BA
:1055140033303030007370695F6C6C5F73746D335B
:10552400320000000000000000000102030406072E
:10553400080902030405060708090A0B0C0D0E0FDF
:105544001010006D61696E006F73002A2A2A2042D0
:105554006F6F74696E67205A6570687972204F5353
:10556400206275696C64207A65706879722D76336F
:105574002E342E302D313433302D6730626665334E
:1055840063633264303531202A2A2A0A000000007D
:10559400BD3B0008CF3D0008D9430008FD43000887
:1055A40000000000851A00082144000800000000E3
:1055B4004F44000800000000C04D00080202000033
:1055C40000000000C04D00080102000000000000BF
:1055D400C04D0008000200000008070000000000A1
:1055E400C04D00088E010000000000000000000013
:1055F4000853000801000000680000206800002033
:105604000000000001000000780000207800002065
:105614000000000001000000000000000000000085
:105624000000000000000000000000000000000076
:105634000000000000000000000000000024F4004E
:10564400B0000020B00000200000000000000000B6
:105654000000000000000000000000000000000046
:105664000000000000000000000000000000000036
:105674000000000000000000000000000000000026
:105684000000000000000000FFFFFF000000FFFF1B
:10569400FFFFFFFFFFFFFFFF00000000000000000E
:1056A4000000000000000000FFFFFF000000FFFFFB
:1056B400FFFFFFFFFFFFFFFF0000000000000000EE
:1056C4000000000000000000FFFFFF000000FFFFDB
:1056D400FFFFFFFFFFFFFFFF0000000000000000CE
:1056E4000000000000000000FFFFFF000000FFFFBB
:1056F400FFFFFFFFFFFFFFFF0000000000000000AE
:105704000000000000000000FFFFFF000000FFFF9A
:10571400FFFFFFFFFFFFFFFF00000000000000008D
:105724000000000000000000FFFFFF000000FFFF7A
:10573400FFFFFFFFFFFFFFFF00000000000000006D
:105744000000000000000000FFFFFF000000FFFF5A
:10575400FFFFFFFFFFFFFFFF00000000000000004D
:105764000000000000000000FFFFFF000000FFFF3A
:10577400FFFFFFFFFFFFFFFF00000000000000002D
:105784000000000000000000FFFFFF000000FFFF1A
:10579400FFFFFFFFFFFFFFFF00000000000000000D
:1057A4000000000000000000FFFFFF000000FFFFFA
:1057B400FFFFFFFFFFFFFFFF0000000000000000ED
:1057C4000000000000000000FFFFFF000000FFFFDA
:1057D400FFFFFFFFFFFFFFFF0000000000000000CD
:1057E4000000000000000000FFFFFF000000FFFFBA
:1057F400FFFFFFFFFFFFFFFF0000000000000000AD
:105804000000000000000000FFFFFF000000FFFF99
:10581400FFFFFFFFFFFFFFFF00000000000000008C
:105824000000000000000000FFFFFF000000FFFF79
:10583400FFFFFFFFFFFFFFFF00000000000000006C
:105844000000000000000000FFFFFF000000FFFF59
:10585400FFFFFFFFFFFFFFFF00000000000000004C
:105864000000000000000000FFFFFF000000FFFF39
:10587400FFFFFFFFFFFFFFFF00000000000000002C
:105884000000000000000000FFFFFF000000FFFF19
:10589400FFFFFFFFFFFFFFFF00000000000000000C
:1058A4000000000000000000FFFFFF000000FFFFF9
:1058B400FFFFFFFFFFFFFFFF0000000000000000EC
:1058C4000000000000000000FFFFFF000000FFFFD9
:1058D400FFFFFFFFFFFFFFFF0000000000000000CC
:1058E4000000000000000000FFFFFF000000FFFFB9
:1058F400FFFFFFFFFFFFFFFF0000000000000000AC
:105904000000000000000000FFFFFF000000FFFF98
:10591400FFFFFFFFFFFFFFFF00000000000000008B
:105924000000000000000000FFFFFF000000FFFF78
:10593400FFFFFFFFFFFFFFFF00000000000000006B
:105944000000000000000000FFFFFF000000FFFF58
:10595400FFFFFFFFFFFFFFFF00000000000000004B
:105964000000000000000000FFFFFF000000FFFF38
:10597400FFFFFFFFFFFFFFFF00000000000000002B
:105984000000000000000000FFFFFF000000FFFF18
:10599400FFFFFFFFFFFFFFFF00000000000000000B
:1059A4000000000000000000FFFFFF000000FFFFF8
:1059B400FFFFFFFFFFFFFFFF0000000000000000EB
:1059C4000000000000000000FFFFFF000000FFFFD8
:1059D400FFFFFFFFFFFFFFFF0000000000000000CB
:1059E4000000000000000000FFFFFF000000FFFFB8
:1059F400FFFFFFFFFFFFFFFF0000000000000000AB
:105A04000000000000000000FFFFFF000000FFFF97
:105A1400FFFFFFFFFFFFFFFF00000000000000008A
:105A24000000000000000000FFFFFF000000FFFF77
:105A3400FFFFFFFFFFFF0000000000000000000068
:105A44000000000000000000FFFFFFFFFFFFFFFF5A
:105A5400FFFFFFFFFFFFFFFFFFFFFFFFFFFFFFFF52
:105A6400FFFFFFFFFFFFFFFF00000000000000003A
:105A74000000000000000000000000000000000022
:105A84000000000000000000000000000000000012
:105A94000000000000000000000000000000000002
:105AA4000000000000000000FFFFFF0000000000F5
:105AB400FFFFFFFFFFFFFFFFFFFFFFFFFFFFFFFFF2
