:020000040800F2
:10000000D010002001110008153A0008D510000892
:10001000D5100008D5100008D51000080000000019
:10002000000000000000000000000000DD0D0008DE
:10003000D510000800000000950D000849270008B1
:10004000590E0008590E0008590E0008590E0008F4
:10005000590E0008590E0008590E0008590E0008E4
:10006000590E0008590E0008590E0008590E0008D4
:10007000590E0008590E0008590E0008590E0008C4
:10008000590E0008590E0008590E0008590E0008B4
:10009000590E0008590E0008590E0008590E0008A4
:1000A000590E0008590E0008590E0008590E000894
:1000B000590E0008590E0008590E0008590E000884
:1000C000590E0008590E0008590E0008590E000874
:1000D000590E0008590E0008590E0008590E000864
:0C00E000590E0008590E0008590E0008C7
:0400EC00FFFFFFFF14
:1000F00053B94AB9002908BF00281CBF4FF0FF318F
:100100004FF0FF3000F00CB8ADF1080C6DE904CEF3
:1001100000F008F8DDF804E0DDE9022304B07047E0
:10012000704700BF2DE9F04786468C4608461546C5
:1001300074461946089E002B40F0C2808542B2FAF0
:1001400082F245D94AB1C2F1200300FA02FC2EFA2C
:1001500003F3954043EA0C0C94404FEA154EBCFB68
:10016000FEF8A8B20EFB18CC08FB00F9230C43EAFA
:100170000C43994528D9EB1808F1FF3704D299456B
:1001800002D9A8F102072B44A3EB0903B3FBFEFC41
:100190000EFB1C330CFB00F0A4B244EA0344A04263
:1001A00014D92C190CF1FF3304D2A04202D9ACF1BE
:1001B00002032C44241A43EA07401EB10023D44012
:1001C00034607360BDE8F0874746DDE76346F1E7DA
:1001D00092BB0121431B4FEA154EB3FBFEFCAFB2AD
:1001E0000EFB1C330CFB07F8200C40EA0343984538
:1001F00062D9EB180CF1FF3004D2984502D9ACF16A
:1002000002002B44A3EB0803B3FBFEFC0EFB1C33E4
:100210000CFB07F7A4B244EA0344A7424ED92C19B9
:100220000CF1FF3304D2A74202D9ACF102032C44F3
:10023000E41B43EA0040C0E7C2F12003954020FAE6
:1002400003F12EFA03F34FEA154EB1FBFEFC90408A
:100250000343AFB20EFB1C100CFB07F8190C41EA6C
:100260000041884504FA02F422D969180CF1FF30E4
:1002700004D2884502D9ACF102002944A1EB08015F
:10028000B1FBFEFC0EFB1C110CFB07F79BB243EA13
:1002900001439F420ED9EB180CF1FF3104D29F426B
:1002A00002D9ACF102012B44DB1B41EA004192E789
:1002B0006046E3E76146F7E76046A3E76346B7E7D2
:1002C000834206D916B9002108467BE7C6E900E05B
:1002D000F9E7B3FA83F78FB9834201D3724508D89F
:1002E000BEEB020460EB030301209C461EB9002113
:1002F00068E73846FAE7C6E9004CF8E7C7F1200C92
:10030000BB4022FA0CF41C434FEA144920FA0CF3C8
:10031000B3FBF9F8B8402EFA0CF101430EFA07F5D9
:1003200009FB18301FFA84FE08FB0EFA0B0C43EA97
:1003300000439A4502FA07F240D9E31808F1FF306A
:1003400004D29A4502D9A8F102002344A3EB0A0380
:10035000B3FBF9F809FB183308FB0EFE89B241EA3A
:1003600003418E452CD9611808F1FF3304D28E4524
:1003700002D9A8F10203214443EA0040A0FB0298FD
:10038000A1EB0E014145CE46434602D306D14D4571
:1003900004D2B9EB020E68EB04030138002EA6D09C
:1003A000B5EB0E0261EB030101FA0CFC22FA07F334
:1003B0004CEA0303F940C6E9003198E74046C5E737
:1003C0004346D9E7000000002DE9F04F87B0D0E99F
:1003D0000053029383890393AB6828465B680299B4
:1003E00004AA9847002831DBDDE9044A1C4F4FF08E
:1003F000FF39A4FB07B207FB0A2717A3D3E90023A1
:1004000058463946FFF774FEDFF85880D94578EB37
:10041000070306461AD3144BA4FB03B403FB0A4498
:100420000DA3D3E9002321465846FFF761FED945C5
:1004300078EB0404034609D38642AA6806D30399DD
:1004400028460091146802993246A04707B0BDE8DB
:10045000F08F00BFAFF3008000CA9A3B000000009D
:10046000C0C62D00FFC99A3B60E3160008B51148CD
:1004700004F025F920B9104803F0E7F9012008BD80
:100480000C4804F01CF908B90C48F5E7094804F0D9
:1004900016F908B90A48EFE70A4803F0BAF90A481A
:1004A00003F0B7F9094803F0B4F9094803F0CDF9AE
:1004B0000020E4E7404A0008725000088E5000080F
:1004C000AA500008704D0008684D0008604D0008F3
:1004D000C650000808B50020FFF7C8FF0348FFF723
:1004E00073FF0348FFF770FFFEE700BF884D000869
:1004F000784D0008014B1B68184700BF0000002022
:10050000014B1860704700BF0000002007B50B4684
:10051000002102460091034800F006F803B05DF8A0
:1005200004FB00BFF50400082DE9F04F81468B461F
:1005300017461C46002595B0387808B9284657E379
:100540007B1C2528039306D05946C8470028C0F2D3
:100550004F830135FBE1182200210EA803F07CFA3D
:100560007B78252B7DD0002398469E469C461E46D0
:10057000781C014610F8012B2B2A00F0A18000F214
:100580009880202A00F09F80232A00F09F802BB1C2
:100590009DF8403043F040038DF84030B8F1000F33
:1005A00005D09DF8403043F020038DF84030BEF177
:1005B000000F05D09DF8403043F010038DF8403017
:1005C000BCF1000F05D09DF8403043F008038DF8D2
:1005D00040302EB19DF8403043F004038DF8403098
:1005E0009DF8403003F04400442803D16FF3861394
:1005F0008DF840309DF840302A2A43F080038DF872
:1006000040307FD19DF841204B1C42F001028DF813
:1006100041201A782E2A0CBF012100219DF841208B
:1006200061F341028DF8412078D15A782A2A6ED0A0
:1006300000224FF00A0C0133194611F8010BA0F10A
:100640003006092E40F295809DF840101292C1F3B9
:10065000400040EAD2700A4660F341028DF8402023
:100660005CE0BA1C03928DF843309DF84130DA0704
:1006700040F12E8154F8048BB8F1000F07DA9DF891
:100680004020C8F1000842F004028DF840205E07C7
:1006900040F1278154F804ABBAF1000F80F22681B3
:1006A0009DF841306FF341038DF841304FF0FF3A30
:1006B0001CE12D2A0DD0302A7FF469AF012358E7C1
:1006C0004FF0010C55E74FF0010E52E74FF00108D3
:1006D0004FE701264DE703460EFB0262303A18460B
:1006E00010F8016BA6F1300CBCF1090FF3D9994257
:1006F0008FD09DF840101192D20F62F341018DF816
:10070000401086E70B4600224FF00A0EE7E79DF8FF
:100710004120023342F004028DF841201A786C2AFD
:1007200047D02BD8682A31D06A2A4BD04C2A51D0D6
:100730001A4612F8013B782B03928DF843309DF84E
:10074000412000F2BE806D2B51D8692B00F2B98098
:10075000572B67D8412B03D0453B022B00F2B180C9
:1007600004229DF8423062F302038DF842300123E7
:1007700073E00CFB02020B46303A5DE7742A25D089
:100780007A2AD5D106219DF841200CE05A78682AB2
:100790009DF8412006D1012161F3C6028DF8412068
:1007A0000233C5E7022161F3C6028DF8412001330F
:1007B000BEE75A786C2A9DF8412001D10421EBE76D
:1007C0000321F0E705219DF84120ECE707219DF882
:1007D0004120E8E7BDF8402022F4F04222F0020276
:1007E00042F4804242F00202ADF84020DFE76E3B67
:1007F000D9B201238B4040F282410B4237D113F032
:10080000240F51D1D8075CD503219DF8423061F304
:1008100002038DF8423002F07803A3F140014B420D
:100820004B411AE00120A3F15801C9B200FA01F1CD
:1008300011F4624F94D140F6010631421DD111F4FA
:10084000043F3ED09DF8423060F3020302F078028C
:10085000402A8DF8423034D000239DF84020C2F366
:1008600040010B4363F341028DF84020FDE6022175
:100870009DF8423061F30203E8E702209DF8421040
:1008800002F0780260F30201402A8DF8421002BFA4
:100890009DF8401041F001018DF84010632BDBD131
:1008A000131E18BF0123D8E703219DF8423012F030
:1008B000780F61F302038DF8423014BF0123002347
:1008C000CBE79DF8403043F001038DF84030C3E79B
:1008D0009DF94020002AACBF4FF0FF38DDF844807E
:1008E000D5E698077FF5E2AEDDF848A00023CDE914
:1008F00011339DF842309DF8411003F00703012B9E
:10090000C1F3C30133D1CB1E042B04D8DFE803F0BD
:10091000214646212100236801294FEAE372CDE9EF
:100920000E321CD19DF93830DA17CDE90E3204347D
:100930009DF8403013F0030650D03A4659464846D9
:10094000039B03F043F80028C0F252810544039F43
:10095000F2E554F8043BDA17CDE90E32E8E7022954
:10096000E5D11AB243F3C033CDE90E23DFE7022B02
:1009700024D1CB1E042B04D8DFE803F01810101884
:10098000180001294FF0000254F8043B14D002294A
:10099000CDE90E32CCD19BB20E93C9E7073424F0D7
:1009A0000704F4E80223CDE90E23C1E754F8043B21
:1009B0000E9300230F93BBE7DBB2CDE7042B08D1E6
:1009C000073424F00704D4E900230834CDE90E23CA
:1009D000AEE7032BACD154F8043BDDE79DF84300B0
:1009E0007828B4D862281CD825283FF4ADAD582803
:1009F000ADD1DDE90E010DF13603009310AA08AB6D
:100A000002F09EFFBAF1000F074680F29980002F96
:100A10009DD00DF13603D81B002E00F0C0800130B0
:100A2000BDE06338152892D801A252F820F000BF2B
:100A3000050B0008170B00084F0900084F090008B4
:100A40004F0900084F090008170B00084F0900085C
:100A50004F0900084F0900084F090008A30B0008C0
:100A60003B0B0008610B00084F0900084F09000804
:100A7000890A00084F0900083B0B00084F090008CD
:100A80004F0900083B0B0008BAF1000F0E9F35DB41
:100A90005146384602F0CCFF07EB000A002F3FF426
:100AA00056AF00269DF8423013F01002059200F078
:100AB000928002305B06119A48BF129B104448BFD7
:100AC000C018B8F1000F049240F39F809DF84020B9
:100AD000A8EB0008C2F380035007069300F195804D
:100AE000510640F188803EB159463046C84700283B
:100AF0007EDB069B01351E4630227DE0384602F043
:100B000090FFC9E70E9B002601208DF8203008AF2A
:100B10000DF1210AC6E719075ABFC3F300135E019E
:100B20002B26DDE90E23002BBFF663AF524263EBA9
:100B300043032D26CDE90E235BE7002659E7002667
:100B40009DF840200DF13603DB1B6FF386129A45AA
:100B50008DF840207FF65BAFAAEB0303119356E7B5
:100B60000E9890B30DF136030093002108AB10AA44
:100B700002F0E6FEBDF84230BAF1000F03F0EF03D9
:100B800043F4F04343F010030746ADF84230D6DAA1
:100B900000283FF4DCAE00260DF13603181A9A4601
:100BA00080E70E9B07293FF6D2AEDFE801F00C0488
:100BB000060C08080C0C1D70C9E61D80C7E6EA1774
:100BC000C3E90052C3E61D60C1E62F4F064607F198
:100BD000050A052066E71A0748BF01306AE7104694
:100BE000079306925946C847DDE90623002804DA30
:100BF00015B0BDE8F08F202243461946002903F1C5
:100C0000FF33ECDC454498466D1A2EB15946304608
:100C1000C8470028ECDB01359DF84230DA0601D4E4
:100C20001B0705D559463020C8470028E0DB0135B1
:100C3000059B33B159469DF84300C8470028D7DBD0
:100C40000135049E2E4405E059463020C84700284F
:100C5000CEDB0135731B002BF6DC53463A46594672
:100C6000484602F0B3FE0028C2DB0544A844A8EBC6
:100C70000503002B7FF76BAE59462020C84700289C
:100C8000B6DB0135F3E700BFEB5000084FF0100270
:100C9000EFF3118382F31288BFF36F8F83F3118810
:100CA000BFF36F8F024B034A00201A60704700BFEA
:100CB0008800002000127A00014910220A60704763
:100CC00010ED00E072B6404080F31188BFF36F8FE3
:100CD000BFF34F8F30BF62B6BFF36F8F704700BF57
:100CE00040B2002807DB01234109034A00F01F003E
:100CF000834042F82130704700E100E040B2002814
:100D000001F10101ACBF00F16040064B4FEA011157
:100D1000C9B2ABBF00F5614000F00F0080F80013CE
:100D20001954704714ED00E030BFFFF7FDBF00BF5E
:100D300008B5094B094A23F0604323F07F03936011
:100D4000BFF34F8FBFF36F8F01F058FF02F0DEFB50
:100D500000F0CAF901F092FF0000000800ED00E089
:100D6000094A0A49936809689866D96608494B6830
:100D700043F080534B60002383F31188BFF36F8FE0
:100D80009368D86E704700BF980300205050000849
:100D900000ED00E00F498A684FF030001044EFF397
:100DA000098C80E8F01F102080F31288BFF36F8F4A
:100DB000094F4FF000668A698A603E60906E00239A
:100DC000936680F3118802F1300090E8F01F8CF3F5
:100DD000098870479803002004ED00E01EF0040F1E
:100DE0000CBFEFF30880EFF30980816911F8021C52
:100DF0000229FFD001B502F005FE01BD42F8203CFA
:100E0000009B0B4942F81C3C019B21F0010142F878
:100E1000183C029B42F8081C42F8143C4FF08073C7
:100E200042F8043C0023203A02658366704700BF05
:100E300065380008074B9860104681F30988002147
:100E400063B681F31188BFF36F8F0022002302F095
:100E500009FD00BF9803002001B5EFF30580A0F164
:100E600010004FEAC0000449014409C99847BDE891
:100E70000140024908470000184B0008810E000895
:100E8000044B99689869884203D003494FF0805217
:100E90000A6070479803002004ED00E0134B9A6A43
:100EA00012F0007F9A6A14BF1E201D2012F0807F6E
:100EB0009A6A18BF1F2012F4002F9A6A18BF2120C7
:100EC00012F4802F9A6A18BF222012F4003F9A6A07
:100ED00018BF232012F4803F9A6A18BF24206FEABB
:100EE00002426FEA12429A62704700BF00ED00E0D2
:100EF00010B5164B9A6A9C6A12F4805F14BF1722D1
:100F0000162214F4006F9C6A18BF1822A40509D594
:100F10009A6B9A6A120404D518B19A6A22F40042B4
:100F20009A621922094B986A10F4806F986A18BF68
:100F30001A2210F4807F986A40F47F4098624FF044
:100F400000030CBF10461B200B7010BD00ED00E02D
:100F500010B5154B0246986A9C6A10F0100F14BF2A
:100F60001120102014F0080F9C6A18BF1220A4074B
:100F700009D5586B986A000604D51AB19A6A22F00E
:100F800080029A621320084B9A6A12F0010F9A6A43
:100F900018BF1420D20658BF9A6A9A6A42F0FF021C
:100FA0009A6200230B7010BD00ED00E070B5444B59
:100FB00006465B6800258AB0C3F3080385F31188F1
:100FC000BFF36F8F02F07F40B0F17F4F11D102F07D
:100FD0000C0008280DD010074CBF0E46012500223A
:100FE000033B8DF80720032B05D8DFE803F01E5CD8
:100FF00060592E46F3E700249DF807309BB9202264
:10100000314602A802F01DFD099B002D53D0C3F309
:10101000080222B96FEA53236FEA4323099320465B
:1010200002A902F0EDFC0AB070BD254BDA6A910707
:10103000E1D4DA6A002ADEDBDA6A5200DBD55A69CB
:10104000B16942F480725A61BFF34F8FBFF36F8F63
:101050005A6931F8021C22F480725A61BFF34F8F33
:10106000BFF36F8F4DF60272914209D09A6AD2B2E5
:1010700042B101200DF10701FFF76AFF0446BBE70B
:101080003468B9E79A6A12F47F4F05D001200DF158
:101090000701FFF72DFFF1E79B6AB3F5803FAAD365
:1010A000FFF7FCFEEAE700200DF10701E4E700206E
:1010B0000DF10701EDE723F4FF7323F00103ADE722
:1010C00000ED00E0024A536943F01003536170479A
:1010D00000ED00E0EFF30880EFF3098101B57246FF
:1010E000FFF764FF01BD00BF002310210348C218B1
:1010F00001332B2B82F80013F9D1704700E100E097
:10110000102080F3118808484FF40061401880F3E4
:101110000988EFF314800221084380F31488BFF399
:101120006F8FFFF705FE0000D0030020084B9B687F
:1011300083420BD1EFF3058343B1064B5A6842F06B
:1011400080525A605A6A22F400425A6202F07EB912
:101150009803002000ED00E0014B1860704700BFCD
:10116000040000202DE9F041054600244FF001085D
:101170000C4E0D4F2B7818191F280DDC726908FAD8
:1011800000F333EA020207D1736157F830301BB124
:1011900007EBC002516898476B780134A342E9DA43
:1011A000BDE8F08100040140A8010020044B184470
:1011B00000230133994200F8012BFADC704700BF8D
:1011C0009400002010B4064B02461856012305492E
:1011D00093400C6823430B6010BCFFF781BD00BF38
:1011E00094000020000401401F2806DC012203496E
:1011F00082400B6823EA02030B6070470004014041
:1012000003292AD8DFE801F0020E141F0122134B34
:101210008240996821EA02019960D96821EA0202B4
:10122000DA60704701220D4B824099681143F3E761
:1012300001220A4B8240D9681143D960996821EA9A
:1012400002029A607047012303FA00F0034B9A6888
:1012500002439A60DA681043D86070470004014086
:1012600010B5074B044653F8300028B943F8341042
:1012700003EBC4035A6010BD6FF00F00FBE700BF23
:10128000A80100200022034B43F8302003EBC003E9
:101290005A607047A80100202DE9F04F894690461A
:1012A0009A4687B083680193534B87689A4200F24D
:1012B0009F80836805A99B6A9847002840F0938027
:1012C000059BB7F840400093B7F842301C44B7F88C
:1012D00044301C440134B8F1000F00F08980BAF5A5
:1012E0007A7F80F0858004FB08F4009B4FF6FF7046
:1012F000B3FBF4F4012C38BF012404FB08F1B7F868
:1013000046309C4206DD4FF6FF7398426BD16FF07A
:10131000850068E0009BB3FBF1FE01FB1E3383BB3D
:101320004FF47A760AFB0EFCBCFBF6FCB7F84030B3
:10133000B7F8425002931D44019B019E1B8FB6F8E3
:101340003AB00393019BADB2DA8E1FFA8EF3A3EB92
:101350000C0C1FFA8CFCDC4516D9B7F844606645C6
:1013600028BF664603F1FF3CACEB060C1FFA8CFC71
:1013700065450BD25E1B013EB7F84430B6B2B342AE
:101380000DD201344144BAE75E46EBE7039D1544B4
:10139000ADB265452AD95B1B9EB2B345F1D8B2EB1D
:1013A000550F4FEA550303D2029A9A4228BF1A46B4
:1013B0004FF47A7305FB0333B3FBFEF39A4534BF56
:1013C000A3EB0A03AAEB03039842DAD9AD1A98B249
:1013D000A9F80220A9F80450A9F80660A9F8084065
:1013E000002BCED1184607B0BDE8F08F6546D6E792
:1013F0006FF01500F7E700BF40420F0070B50368BB
:10140000044643F00103036001F04EFA0546094E1D
:101410006368DB0701D500200AE001F045FA401BB4
:10142000B042F5D96FF00A00236823F0010323606E
:1014300070BD00BF80FC0A0008B50A464168054837
:1014400014318368DB680BB1984708B16FF0040072
:1014500008BD00BFC849000870B5436805691C682D
:101460004FF0FF324FF0FF3328460E4602F0E1FC0A
:1014700095F8ED302BB1284602F0DDFC6FF00F003F
:1014800070BD3389E169114A013B0A40C3F3090386
:101490001343B288013A120402F470221343F28813
:1014A000013A120502F4E0021343E361338843B1C9
:1014B000E269013B1B0603F0407322F040721343C4
:1014C000E361284602F0B7FC0020D9E700FC80FF6A
:1014D0002DE9F0411D461B7A0446072B8846174626
:1014E000066900F2A1804FF0FF324FF0FF33504801
:1014F00002F09FFC4FF0FF324FF0FF33304602F016
:1015000098FC616895F808C006C98A4214BF0E218C
:1015100000211CF0010E236955D00024703353F8CC
:10152000040F002841D10CF002030CF0060CBCF1B2
:10153000060C18BF4FF0010C2868214443EAC00391
:10154000686843F00403C00040EA4C0040F0040027
:10155000D2F800C24CF0010CC2F800C295F808C0E5
:101560001CF0010F53D002EBC10CCCF84032CCF888
:1015700044020123D2F81C028B400343C2F81C3200
:10158000D2F8003223F00103C2F800322B7A13F0B4
:10159000010F4FEA8403334419BFC3F87480C3F8C2
:1015A000C870C3F820805F6704E00134072CB6D10F
:1015B0006FF01B04304602F03EFC1D4802F03BFC7D
:1015C0002046BDE8F081383353F8040FC8B94FEA1C
:1015D000CC030CF0060CBCF1060C18BF4FF0010C4C
:1015E000286803F0100343EA40136868073140019C
:1015F00040EA0C1040F008000EF1070401EB6E0108
:10160000A6E70EF1010EBEF10E0FDDD1D0E743EAE1
:10161000004314F0010F01F148000ABF02EBC000C3
:1016200042F830304360A4E76FF08504C8E700BF9C
:10163000180300202DE9F04345680746D0F81080D4
:101640002E6885B0544803F084F8404603F081F8D2
:101650000122002108F1140003F082F8686A50B9F1
:101660004E4C204603F02BF850B96FF01204204680
:1016700005B0BDE8F08303F022F80028F0D1F4E7CC
:10168000A36820461B6805F114019847814610B1F4
:101690006FF00404EBE7014601AA286A02F066FE37
:1016A000041EE4DB019B4A461979186800F094FA9D
:1016B000041EDCDB3368DFF8E89023F002033360BC
:1016C00001F0F2F8044673689B074FD43046FFF7E9
:1016D00095FE04460028CAD1D5E900239A4218BFD6
:1016E0000E24D3F8002242F00102C3F800227F2327
:1016F0006A68A340D2F80C120B43C2F80C326A6835
:10170000D2F8003223F00103C2F80032336823F02C
:10171000FC033360336843F040033360AB7BADF8C8
:101720000430AB8953B3AA68384601A9FFF7B4FD6A
:101730001630ADD0384601A9FFF78EFE04460028CA
:1017400095D10146384602F057FC044600288ED158
:10175000024608F1EC01384602F0FDF9EB6930462B
:101760009847736943F00103736180E701F09CF8C7
:10177000001B4845A7D96FF00A0478E7ADF806309A
:10178000EB7B3846ADF808302B7C01A9ADF80A3068
:10179000AA6802F0B6F9CDE718030020C84900088E
:1017A00080FC0A00F8B50E46476805694FF0FF3225
:1017B0004FF0FF333B487C6802F03BFB4FF0FF32B9
:1017C0004FF0FF33284602F034FBD7E90032934252
:1017D00014BF0E230023062E4FEA86021DDC0021D3
:1017E0002A445167C2F8C810D4F80022334442F0AA
:1017F0000102C4F8002204EBC302C2F840124FF009
:10180000FF31C2F844120121D4F81C2201FA03F37B
:1018100022EA0303C4F81C321CE00021073E073310
:101820002A4403EB660316F0010F1162516703F1BE
:1018300048011DD0D269D4F80002B2FA82F240F019
:101840000100C4F80002184804EBC10152094860C5
:10185000002AD8D1D4F80032284623F00103C4F876
:10186000003202F0E8FABDE8F8400E4802F0E3BAB0
:101870000C2E0DDC526AD4F80002B2FA82F240F06B
:101880000100C4F800020848520944F83100DFE7BB
:10189000D4F8002242F00102C4F80022024A44F8BF
:1018A0003120B0E7180300200000FFFF2DE9F843C6
:1018B000056946684FF0FF334FF0FF32284637681E
:1018C00002F0B7FA95F8ED3063BB706A80B93B68F7
:1018D000DFF8589023F001033B6000F0E5FF8046FD
:1018E0007C6814F001040FD1012385F8ED3005E088
:1018F00083681B68984704460028E8D0284602F011
:101900009AFA2046BDE8F88300F0CEFFA0EB08006D
:101910004845E5D9706A10B183685B6898476FF0F5
:101920000404EBE76FF07704E8E700BF80FC0A00EF
:101930000E4B18680B68052B0BD883B1023B032BA9
:1019400003D8DFE803F0110202030020106000203A
:101950007047182BFAD01C2B04D0142BF6D06FF044
:10196000850070474008F1E70148EFE78800002054
:1019700000127A0070B502F0B3FB00F0ABFF324CFE
:10198000324A6368324EC3F30313D35C20FA03F583
:10199000B54202D82F4801F0CFF8236823F4802302
:1019A0002360236843F48033236023689803FCD5C5
:1019B000636803F00C03082B15D1636823F0F00370
:1019C00063602368990706D4236843F0010323600A
:1019D00023689A07FCD5636823F003036360636898
:1019E00013F00C0FFBD1236823F08073236000F009
:1019F00035F8236843F08073236023689B01FCD58E
:101A0000636823F0F0036360636823F0030343F02B
:101A100002036360636803F00C03082BFAD1B5423C
:101A200002D90C4801F088F80B4B0A4A00201A60D2
:101A3000636823F4E06343F480636360636823F4C2
:101A40006053636070BD00BF00100240FB5100088E
:101A5000FFA14A0400A24A0488000020054A5368F6
:101A600023F47C1343F4E8135360536823F4800396
:101A7000536070470010024008B5074802F01FFE8F
:101A800038B10648FFF768FB0448FEF739FD00202F
:101A900008BD6FF01200FBE7884A0008A11A000891
:101AA0000A2838B50446074D04D1AB680D212846F5
:101AB0005B689847AB6803485B68E1B2984720468B
:101AC00038BD00BF884A000838B50369044658602D
:101AD000084D284602F0F3FD40B16168AB68284626
:101AE0001B680C31984700EAE07038BD6FF01200B7
:101AF000FBE700BFC8490008F8B51746B7F5001F57
:101B00000C461D464668026923D10F2301F00302EB
:101B100004329200934043EA9103DAB22C49023234
:101B200051F82220190C02EA134391FAA1F2B2FAF9
:101B300082F2D340B2689A4209D12046FFF754FBA3
:101B40002046FFF79FFB00212046FFF759FB0020AE
:101B5000F8BDB7F5800F35D020461E49FFF780FB52
:101B600098BB0F2204F0030304339B009A4042EA1F
:101B70009402D3B29B0003F1804303F58033B16834
:101B80009E68100C26EA124690FAA0F2B2FA82F28F
:101B900001FA02F23243B5F1806F9A600ED0B5F1CE
:101BA000C06F0DD005F17E4359425941490020468E
:101BB000FFF726FB2046FFF705FBC8E70121F6E704
:101BC0000321F4E76FF08500C2E76FF00F00BFE775
:101BD00000000140F94100082DE9F347036804467D
:101BE000C3F38F25C3F38923FBB101228A4223D398
:101BF000334A15F0010F906940F00100906192693D
:101C00004FEA132002F001020192019A2D4AC3F318
:101C1000440300FA03F009BF5368D369034343F058
:101C2000E06316BF03435360D361274F04EBC10643
:101C3000A6420ED1002007E054F83200C0F38920FC
:101C4000984204D06FF0150002B0BDE8F087013271
:101C5000CCE7D4E9002512F003090FD145F0410586
:101C6000C2F3870AC2F383120A2AEBD857F82280FC
:101C7000B8F1000F13D16FF01200E5E7B9F1020FD0
:101C8000EED0B9F1010F07D115F4C07F0CBF45F0BC
:101C9000020545F00405E3E745F00105E0E74046AD
:101CA00002F00DFD0028E6D04B462A4640460AF0D9
:101CB0000F0102F046FB002804F10804B8DAC3E77C
:101CC0000010024000000140B44E00082DE9F0432E
:101CD0001F464B1E89B0032BBDF84040466800F2FA
:101CE000B880B2F5803F00F2B7805D4814F4807987
:101CF00050F823800DD0042900F0AB80594951F8E9
:101D0000230042B93268136A23EA000313620020F9
:101D10005BE04046F5E7B16871BB551E316804F0E1
:101D200001040A6A640030EA02023AD1402800F055
:101D300088802ED8042800F08680102800F0858046
:101D4000012808BF002218BF0622DFF81CC1086A5C
:101D50001CF802C0022202FA0CF220EA020204FA83
:101D60000CF41443414A0C6252F82330394630686F
:101D700098473368DD62CAE7102901D1013FCCE7FB
:101D800021F04005202D01D0402965D17F0855085C
:101D9000C4E7B0F5807F5AD0B0F5806F08BF052248
:101DA000D1E7684602F080FC602300930123B9F17B
:101DB000000F0DD00293059403976A4641463068A0
:101DC00000F0F2FD38B16FF0040009B0BDE8F08317
:101DD00001930494F0E73268B8F1400F136843F0C0
:101DE00080031360326824D01BD8B8F1040F22D0CE
:101DF000B8F1100F21D0B8F1010F18BF06201C4B0D
:101E00001832195C1B4B5458185C08238340234339
:101E100053503368DD623268536943F00103536104
:101E200075E7B8F5807F0AD0B8F5806F08BF052048
:101E3000E3E70320E3E70120E1E70220DFE70420F6
:101E4000DDE7032281E701227FE702227DE704220A
:101E50007BE76FF01500B8E76FF08500B5E700BFCE
:101E6000944F0008884F0008A0510008784F0008E0
:101E7000AE510008A75100082DE9F04186B006696F
:101E800044682C4D284602F01AFC00284CD0D5F8A6
:101E9000088004F10C0739462846D8F800309847E6
:101EA000002804DBD8F80C3023B96FF0570006B0D7
:101EB000BDE8F0813946284601AA98470028F6DB9C
:101EC000E268019B1C2A08BF5B0033600021606947
:101ED00001AA02F04BFA0028E9DB019B00221979E4
:101EE0001868FFF779FE0028E1DB01A802F0D3FBB8
:101EF000636801A9ADF80430A36802930023CDE91B
:101F00000333206800F020FD88B923680A4A0020C6
:101F1000934202BF5A6C42F400425A64226813682A
:101F200043F001031360C2E76FF01200BFE76FF0E8
:101F30000400BCE7C8490008002C0140F7B506467C
:101F4000446807693648786002F0B9FB20B96FF041
:101F50001205284603B0F0BD7868616883681B6885
:101F6000984705460028F4D1014601AAA06902F06D
:101F7000FDF9002801DA0546EBE7019B2A461979AD
:101F80001868FFF729FE0028F5DB2268D36823F4E0
:101F90000053D360B86802F092FB0028D7D0D7E98D
:101FA00002018368DB6803B198472268D36843F075
:101FB0000C03D3602369022B29D0012B2CD14FF4C1
:101FC00080534FF4C06021680343CA6822F4B052C2
:101FD0001343CB600B6923F440530B61237B2BB17C
:101FE00073681A68536943F4407353613046396823
:101FF00002F025FA237D23B12268536943F00803D8
:1020000053612268D36843F40053D360A1E74FF4CF
:1020100080534FF48060D6E700231846D3E700BF13
:10202000C84900082DE9F0410B790C46012B4568A1
:1020300006697DD09A1E57425741BF02627994F8D3
:102040000680022A96BF4C494FF4005C31F812C05A
:10205000B8F1040F7BD094F807E0002B6BD1BEF1F0
:10206000010F22F002027FD0002A70D0B8F1020FD7
:102070006DD91946D5F80080BEF1000F0DD03F4A4A
:10208000904507D0A2F57442904503D002F58062D6
:1020900090455CD1BEF1010F59D1D8F80C2022F443
:1020A0000052C8F80C204268D2F800E0DEF80C209C
:1020B00002F4C06297421FBFDEF80C2022F4C06217
:1020C0003A43CEF80C20426817683A6902F440524D
:1020D00094451FBF3A6922F4405242EA0C023A6129
:1020E00042681768FA6802F480529A421FBFFA6881
:1020F00022F480521343FB6043681A68536903F467
:10210000407399421FBF536923F440730B435361DB
:1021100021683368994203D002F091F92368336053
:1021200000202A68D36843F40053D360BDE8F081EF
:102130004FF4C06782E7033BBEF1010FDBB209D168
:10214000012B04D94FF4407112F0FD0F06D16FF04E
:102150008500EBE7012BFAD90021F5E7B8F1020F72
:10216000F5D94FF4805385E7002AF0D0B8F1020F7B
:10217000EDD94FF440717DE76C5000080038014004
:102180002DE9F341056946682D4C204602F097FA87
:10219000002852D0A36820461B68F16898470028A1
:1021A00048DB0021706801AA02F0E0F8002841DB5A
:1021B000019B002219791868FFF70EFD002839DB12
:1021C0000126AC680834D5E9023203EBC203A4F15E
:1021D0000802934204D8284602F047FA002029E07A
:1021E00054F8080C02F06BFA38B354F8080C14F8E1
:1021F000041C34F8023CD0F810C0DA07DCF8007098
:1022000054BF43F4B01383F4D01323F4801206FABE
:1022100001FEDB07D0F808804CBF4EEA070727EA2B
:102220000E07CCF80070D8F800309847002804F169
:102230000804C8DA02B0BDE8F0816FF01200F9E7D7
:10224000C84900082DE9F04F99464368064688467C
:10225000924604691D688DB012B9B9F1000F36D0ED
:10226000D8F804309F0436D44FF0FF324FF0FF33DC
:1022700004F1100000F0B4FEC4F80480DFF8CCE0F4
:1022800004AFBEE80F000FC79EE80F00D6F810B0ED
:1022900087E80F00DBF80030D6F804C0984500F05E
:1022A000A180D8F80430DCF80070C3F34512082A86
:1022B00018D0102A16D06FF0850923685B6813F4D4
:1022C000005304D1636004F1100000F069FE484639
:1022D0000DB0BDE8F08FA369002BC5D163689845A8
:1022E000C2D1CBE71804E6D41948DCF80C10836897
:1022F000DB6813B96FF00409DFE703AA98470028E9
:10230000F8DB0123039AD8F8001022FA03F0884280
:1023100005D90133092BF8D16FF01509CDE73A68DB
:102320000CA922F040023A603A6801EB830353F8AB
:10233000243C22F0380213433B60D8F8043099075C
:1023400008D43B6823F0020307E000BF404D0008BB
:10235000C84900083B6843F002033B60D8F80430EA
:1023600013F0040F3B6814BF43F0010323F0010393
:102370003B603B6823F444433B60D8F8043013F0DF
:10238000100F3B6814BF43F0800323F080033B60D1
:102390003B6823F400533B60D8F80C30002B00F06E
:1023A000D5803B6843F400733B607B6823F00403F3
:1023B0007B60D8F8043013F0010F3B6814BF23F49E
:1023C000827343F482733B60D8F80430C3F345133F
:1023D000082B3B680CBF23F4006343F400633B60AD
:1023E000CBF80080BAF1000F40F0C080C4F834A0F0
:1023F0000023A36304F1380704F1340304F148080F
:10240000019342460123394604F1340002F0E1F819
:102410006064B9F1000F40F0B280C4F83C90002332
:1024200004F13C0904F1400A04F1500B5A465146AC
:1024300023644846012302F0CCF80022E0642263C2
:102440002B68012143F040032B60306902F0EBF868
:1024500023685B68DA0700F1D280AA689007FCD590
:10246000C3F34513082B626C40F09A80002A00F0F9
:102470008F80A36C03B11378DBB22B73A36C8BB189
:10248000013BA364002B40F08580636B08336363DA
:10249000A36B013BA363012342463946019802F036
:1024A00098F86064AB68D907FCD5D4E91331226889
:1024B0005268C2F34512082A40F08E802A7BD2B2BD
:1024C0000BB101B11A70236D8BB1013B2365002B59
:1024D00040F0E880E36B0833E363236C013B236443
:1024E00001235A465146484602F073F8E064AB684F
:1024F00013F0700F00F0E580AB68590605D5EB6866
:102500000393039BAB680393039B6FF004090022C2
:10251000736811461D68306902F085F82B6803F472
:102520008273B3F5827F02D1AB681A06FCD4AB6824
:102530009B0606D5AB680493049B2B6823F04003ED
:102540002B602B6823F040032B60B6E6D8F80430EC
:1025500013F0010F3B6823F400737FF425AF43F4BD
:1025600080233B607B6843F0040321E7DAF8003006
:102570006363002B3FF43CAFDAF8043039E7D9F855
:102580000030E363002B3FF44AAFD9F8043047E74B
:10259000134671E7636C002B84D00133636481E7D9
:1025A00092B1A36C03B11388AB81A36C002B3FF4F1
:1025B00079AF013BA3644BB9636B08336363A36BCF
:1025C000013BA363022367E71346EDE7636C002B2F
:1025D0003FF468AF0233E1E7EA680BB101B11A805A
:1025E000236D002B83D0013B2365002B63D1E36B6C
:1025F0000833E363236C013B2364022371E7AA6879
:1026000092074AD5A26C002A47D0C3F34513082B82
:10261000626C2DD113782B73A36C7BB1013BA36447
:1026200003BB636B08336363A36B013BA3630123A9
:1026300042463946019801F0CCFF6064AB68D80788
:102640007FF555AFE36C002B3FF451AF226D002AAC
:102650003FF44DAF22685268C2F34512082A28D1D0
:102660002A7B2FE7636C002BE8D001336364E5E736
:102670001388AB81A36C002BE0D0013BA3643BB972
:10268000636B08336363A36B013BA3630223CFE750
:10269000636C002BD2D00233E8E76B6823F0800331
:1026A0006B60CBE7E36C002B3FF421AF0133E364B5
:1026B0001DE7EA6893E7E36C002B3FF418AF0233A1
:1026C000F5E7A36C002B7FF4C3AE236D002B7FF4E2
:1026D000BFAE99461BE700BF4FF0E02310B59A69E3
:1026E0001969986911F4803F084B094901D1824268
:1026F00006D21A680C6822441A604FF0E022126970
:102700001B680A681344181A10BD00BF8803002014
:10271000940300201022094B002083F8232041F667
:102720001F42074B1A60074B18604FF0E0235A61B5
:1027300098611A6942F007021A61704700ED00E0E3
:10274000940300208803002008B5FFF7C5FF0C4B59
:102750000C4A186811680844106000224FF4E151D7
:102760001A60094A1368C01AB0FBF1F001FB00338C
:10277000136000F0B1FFBDE80840FEF781BB00BF69
:1027800088030020900300208C0300202DE9F041F5
:10279000314E002954D0421C0AD14FF0E022136977
:1027A00023F0010313614FF07F433360BDE8F081F4
:1027B000356801284ADD40F61918404501DC00F172
:1027C000FF384FF01003EFF3118483F31288BFF347
:1027D0006F8FFFF781FF4FF0E02300211F4FD3F8E9
:1027E00018C03B68C2181E4B19601E4B1B68D11ADB
:1027F0002FD44FF4E15000FB081101F5E0511F31D7
:10280000B1FBF0F19B1A00FB0133B3F5806F20D9C7
:1028100015498B4228BF0B464FF0E0213360013B46
:1028200088694B61002384458B61ACEB000338BFA2
:102830005B191A443A6084F31188BFF36F8FB5E7D0
:10284000431C3568B5D140F61910B8E74FF00008C1
:10285000B7E74FF48063DFE7940300209003002084
:10286000880300208C03002020DFFF0010B54FF00C
:102870001003EFF3118483F31288BFF36F8FFFF718
:102880002BFF074B074A1B6812689B1A034484F30B
:102890001188BFF36F8F4FF4E150B3FBF0F010BD20
:1028A000900300208C03002010B54FF01003EFF3CD
:1028B000118483F31288BFF36F8FFFF70DFF044B72
:1028C0001B68184484F31188BFF36F8F10BD00BFDD
:1028D0009003002030B5184B87B002AC03F110050F
:1028E000224618685968083303C2AB421446F7D130
:1028F00040F201231149ADF804304B6803F00C029B
:10290000082A17D1C3F3834218326A44DB0312F852
:10291000100C0CD54B680A4AC3F34043504318339C
:102920006B4413F8143CB0FBF3F007B030BD054B1B
:102930005843FAE70248F8E70B520008001002403B
:1029400000127A0000093D00164A036890420AD03E
:10295000B0F1804F07D0A2F59432904203D002F537
:102960008062904217D14A6823F070031343CA680B
:1029700023F44073134303608B68C3620B88836244
:10298000084B984201D10B690363436943F001038B
:1029900043610020704703608B68C3620B888362C9
:1029A000F3E700BF002C0140B1F5807F30B500F0A7
:1029B0008F8005D8012929D0102957D0012030BD9A
:1029C000B1F5805FFAD1036A23F480530362036A8E
:1029D0004468C169156821F4E64141EA0521156999
:1029E00023F4005343EA0533556823F4805343EA44
:1029F0000533504DA84202BF956924F4804444EA4F
:102A000085144460C161D26802642CE0036A23F03B
:102A100001030362036A41688469156824F0730442
:102A20002C43156923F002032B43556823F001035F
:102A30002B43404DA84212D1556923F0080343EAC5
:102A40008503956823F0040343EA8503956921F41F
:102A500080712943D56921F4007141EA4501416043
:102A60008461D268426303620020A8E7036A23F00E
:102A700010030362036A41688469156824F4E6441C
:102A800044EA0524156923F0200343EA0513556839
:102A900023F0100343EA0513264DA84213D15569CC
:102AA00023F0800343EA8513956823F0400343EA4B
:102AB0008513956921F4806141EA8501D56921F486
:102AC000006141EAC50141608461D2688263CAE75E
:102AD000036A23F480730362036A4168C46915685A
:102AE00024F073042C43156923F4007343EA05238F
:102AF000556823F4807343EA05230E4DA84213D191
:102B0000556923F4006343EA8523956823F48063C1
:102B100043EA8523956921F4805141EA0511D5697D
:102B200021F4005141EA45114160C461D268C26399
:102B300099E700BF002C0140D8B10F4B984216D83E
:102B40000E4B984294BF002001200D4A136823F0D9
:102B5000070303431360136803F0070398421CBF85
:102B6000136803F00703C01A18BF01207047022042
:102B7000EBE70120704700BF006CDC0200366E01FD
:102B8000002002400F4B70B553F82040013053F83D
:102B90002060A64200D870BDD4E900352846984789
:102BA0006DB138B10028B8BF4042FF28A8BFFF2050
:102BB000EB681870EA68537843F0010353700834E7
:102BC000E7E700BF54500008012208B5094B032075
:102BD0001A70FFF7D7FF00F003FE0420FFF7D2FFC3
:102BE00000F0DCF8FDF776FC034A137B23F00103C9
:102BF000137308BDCC0300203001002008B5034842
:102C0000034A0021121A01F08CFD08BDC00000200B
:102C1000D0030020702370B5134E012203FB006621
:102C2000002386B0CDE904230F220193CDE90232BF
:102C300018230E4D0E4903FB0055044601EB0021FD
:102C40004FF4807230460B4B009500F07DF8737B9B
:102C50002C7523F004037373074B013403EBC42377
:102C6000EE606B6006B070BDC000002098030020CD
:102C7000D00B00202B470008D003002080B5002097
:102C8000A2B0FFF77FFF294B83F30888284C00256B
:102C90006369284E43F400736361F02384F82230A3
:102CA000E57725766576A57684F82050636A224F0D
:102CB00043F4E0236362FEF705FAFDF7FDFF4FF0F2
:102CC000FF33A362E36240F20113ADF8243006AB98
:102CD000B3601F9501F0F2FC0120FFF753FF0220C3
:102CE000164CFFF74FFF00F09FFB154BB4610593A7
:102CF000012314494FF48062CDE9035320463B463B
:102D0000CDE90155009500F01FF80646627B20468C
:102D100022F00402627301F08BFD2846FFF77AFF70
:102D20003A4631462046FEF785F800BFD00B00201A
:102D300000ED00E098030020C92B000830010020BE
:102D40001C520008D00C00207FB50C9E00F15805E5
:102D500006730426C0E9165500250446467307325B
:102D60000B9E22F0070286738E180A9AC0E9065558
:102D70008560C5730292099A0192089A00923246C0
:102D8000FEF73CF8044B65659B6803B15B6E30460B
:102D9000636604B070BD00BF98030020F0B5224CFC
:102DA000224D87B02646AE4204F12C040BD300F02E
:102DB0000BFB0A261C4C1E4FAC4220D307B0BDE8CB
:102DC000F04000F015BB54F8043C059354F80C3C5B
:102DD000049354F8103C039354F8143C029354F8B1
:102DE000183C019354F81C3C009354E9092354E91E
:102DF0000B01FFF7A9FF54F82C3C5E65D2E7626A2D
:102E0000531C09D022EAE27282FB062352EA030134
:102E1000206803D100F0BAFA2C34CDE739461830D7
:102E200000F0DCFBF8E700BF704C0008704C0008B5
:102E30009D4700082DE9F341044617461E464FF012
:102E40001003EFF3118883F31288BFF36F8FC36809
:102E5000334A7BB180689168884219D057EA0603EB
:102E600018D188F31188BFF36F8F6FF00F0002B095
:102E7000BDE8F081916891F90E100133E360936829
:102E80002161A36088F31188BFF36F8F0020EEE704
:102E90002169F2E791F90E1090F90E306FF07E0281
:102EA0009942A8BF19469142B8BF11468B422EDD08
:102EB00001F047FC054622464146CDE90076194817
:102EC00000F0EEF90028E1D04FF01003EFF3118687
:102ED00083F31288BFF36F8FA068D0B12368216994
:102EE0009C420AD04BB193F90E309942A8BF1946C3
:102EF0006FF07E039942B8BF194601F022FC40B141
:102F00003146084800F030FA6FF00A00AFE70025BC
:102F1000D1E7002DF4D186F31188BFF36F8FF3E76B
:102F200098030020CD03002038B5836804466BB3B6
:102F3000194A926893422CD1C368012B03D9013BF3
:102F4000C360002038BD4FF01003EFF3118583F309
:102F50001288BFF36F8F0169806801F0F2FB204691
:102F600001F076FCA06058B190F90E202261002299
:102F7000C26601F05DFC2946084800F0F5F9E0E77B
:102F8000E06085F31188BFF36F8FDAE76FF015000B
:102F9000D8E74FF0FF30D5E798030020CD0300209D
:102FA00038B504464FF01003EFF3118583F3128810
:102FB000BFF36F8F01F04CFC48B10022C26601F0F4
:102FC00037FC2946BDE83840044800F0CDB9D4E9C3
:102FD00002329A4218BF0133A360F2E7CD0300200A
:102FE00013B54FF01004EFF3118184F31288BFF38F
:102FF0006F8F846844B1013C846081F31188BFF312
:103000006F8F002002B010BD52EA030406D181F395
:103010001188BFF36F8F6FF00F00F3E7CDE9002346
:103020000246024800F03CF9ECE700BFCD03002067
:1030300038B5074D2C6854B1FFF718FC054B044414
:103040001C6128680021BDE8384001F049BC38BD4A
:10305000C40300209803002038B50D4D2B4653F8CB
:103060001C4F9C4200D004B9EC68AB6838B95A7B5D
:10307000D20604D1A26912B9DA897F2A05D89C4206
:1030800002D02046FFF7D4FF2346AB6138BD00BF16
:103090009803002070B590F90D200146002A437B6B
:1030A00004DA03F07F03437301F066FB154A4B7BA0
:1030B000104663F07F034B7350F81C3F146A834241
:1030C00008BF002323B9C1E90004216011620CE0AC
:1030D00091F90E5093F90E60B5420ED0AE420CDD60
:1030E0005868C1E90030016059609068BDE87040DF
:1030F000431A58425841FFF7AFBF9C42E3D01B68C8
:10310000E0E700BF9803002070B490F90D30427BD7
:10311000002B29DBD30627D183692BBB134962F02F
:103120007F0242730A4652F81C4F944218BF23464E
:103130000C6A23B9C0E90024206008620CE090F911
:103140000E5093F90E60B5420AD0AE4208DD5A68BF
:10315000C0E9003210605860002070BCFFF77CBFEF
:10316000A342E7D01B68E4E770BC704798030020D7
:1031700008B590F90D200146002A437B04DA03F0DC
:103180007F03437301F0F8FA044B9868431A5842DE
:103190005841BDE80840FFF75FBF00BF980300201B
:1031A00070B515461C46064601F01AFBB4F1FF3F08
:1031B00008BFB5F1FF3F08D02A46234606F11800A4
:1031C0000249BDE8704000F009BA70BD9D47000893
:1031D00010B54FF01003EFF3118483F31288BFF39F
:1031E0006F8F0A23002800FB03F302DD022BB8BF18
:1031F00002230020064A106106480360064B9068CF
:103200001960FFF715FF84F31188BFF36F8F10BDAE
:1032100098030020C4030020C003002038B54FF0FD
:103220001003EFF3118583F31288BFF36F8F174BF1
:10323000174A9C6811688C4207D12046FFF7F8FEB8
:1032400085F31188BFF36F8F38BD00211160114ADB
:103250001268C2B1E2897F2A15D8627BD20612D1E8
:103260000D4A94F90E10126891420CDB0B4A9442FD
:1032700009D01A69824203DC2046FFF70BFFDCE726
:10328000121A1A61DCE70022FBE700BF9803002056
:10329000BC030020C4030020C0030020C0000020A5
:1032A00070B50C480C4D86680C462E601146DDE961
:1032B00004234FF01006EFF3118586F31288BFF355
:1032C0006F8F8068FFF76CFF2046BDE87040FDF708
:1032D00047BD00BF98030020BC030020F8B504469A
:1032E0004FF01003EFF3118683F31288BFF36F8F53
:1032F000437B49B2DA0619D18569BDB903F07F0372
:10330000437301F039FA437B164A63F07F0343733A
:103310001346817353F81C0F984218BF0546106A74
:103320005DB9C4E900300460146211E00020A173AB
:1033300086F31188BFF36F8FF8BD95F90E70B9420F
:103340000BD08F4209DD6B68C4E900531C606C60D0
:103350000120FFF781FE0120EAE7A842E1D02D68B5
:10336000DEE700BF9803002049B9EFF3058030B9CC
:10337000054B9A699B689A4201D0FDF7F1BC81F335
:103380001188BFF36F8F70479803002010B54FF07E
:103390001002EFF3118482F31288BFF36F8F427B28
:1033A000510704D484F31188BFF36F8F10BD22F04E
:1033B00004024273FFF7A8FE2146BDE81040014811
:1033C000FFF7D2BFCD0300204FF01003EFF31181C0
:1033D00083F31288BFF36F8F044B9A68D37B013B52
:1033E000D37381F31188BFF36F8F70479803002068
:1033F00010B54FF01003EFF3118483F31288BFF37D
:103400006F8F084B00209A68D37B0133D373FFF78B
:1034100023FE84F31188BFF36F8FBDE8104001F0E5
:103420003FBA00BF980300200021044B084603F177
:103430001C02C3E90722FFF7CBBE00BF98030020A0
:10344000014B9868704700BF980300202DE9F041B8
:1034500004464FF01003EFF3118683F31288BFF395
:103460006F8F037BD9070BD586F31188BFF36F8F5E
:10347000404080F311884FF0040002DFBDE8F08186
:10348000437B1A0704D586F31188BFF36F8FF5E7E6
:1034900023F0200242F00801D20920D14173A36831
:1034A00013B1204601F070F904F1180001F002FA9E
:1034B0004FF0000804F15807A56DBD4200D0B5B922
:1034C0000120FFF7C9FD104B9B68A342DBD1EFF34E
:1034D0000583002BD7D13046FDF742FCD3E703F03C
:1034E0005F0343F00803437301F046F9D7E728462A
:1034F00001F04AF905F1180001F0DCF92846C5F899
:103500006C80FFF701FED7E79803002008B5064856
:10351000064A0749121A01F006F9BDE80840054AB3
:103520000549064801F0FFB800000020C000002057
:1035300068520008000000006852000800000020E7
:10354000034B1B680BB9FFF791B90020704700BF10
:10355000C803002010B5114B1C689C420AD1FFF72C
:10356000EFFF6FF000400E4B1B6913B19842A8BFEC
:10357000184610BDFFF7E4FF002CF2D0D4E9043266
:103580001B1A62EBE072B3F1004F72F10001E8DA4E
:10359000002AACBF18460020E5E700BF8C000020E1
:1035A0009803002030B570B10B4B5B6898420AD08D
:1035B000036843B1D3E90421D0E90445121941EB72
:1035C0000501C3E90421D0E9003213605A600023E9
:1035D000C0E9003330BD00BF8C000020B3F1FF3FD5
:1035E00008BFB2F1FF3FF8B504461D46164661D04C
:1035F00081604FF01003EFF3118783F31288BFF35C
:103600006F8F013275F1FF3324DA6FF001032F4918
:10361000D1E900209B1A4FF0FF3262EB00009E1BA5
:1036200060EB0500012E70F1000301DA0126002095
:10363000C4E90460264ED6F800C07568B44508BFDA
:103640004FF0000CBCF1000F0DD1C4E900652C60F7
:1036500074601CE0FFF774FF013645F10005361871
:1036600045EBE070E4E7DCE90420D4E9043193425F
:1036700071EB000E1FDAD21ADCF8043060EB0100A7
:10368000CCE90420C4E900C31C60CCF804403368D2
:10369000B3420BD09C4209D1FFF75CFF18B10D4B30
:1036A0001B69834202D00021FFF770F887F311886D
:1036B000BFF36F8FF8BD9B1A61EB0001AC45C4E905
:1036C0000431C2D0DCF800C0BCE700BFA00100207C
:1036D0008C000020980300202DE9F84F0446FFF7E6
:1036E0009DFD4FF01003EFF3118C83F31288BFF3AD
:1036F0006F8FDFF8B0A0DFF8B090DAF80000C9F8FB
:103700000040504508BF002000240025274FE04618
:10371000D7E90021D9F8003080B3D0E9046C4FEA32
:10372000E37EB3427EEB0C0B05DAF61A6CEB0E046B
:10373000C0E9046422E0B21841EBE671C0E9044537
:10374000C7E90021FFF72EFF88F31188BFF36F8FC1
:10375000836898474FF01003EFF3118883F31288C2
:10376000BFF36F8FD9F80030DAF800009B1B50458B
:10377000C446C9F80030CAD1D7E9002100249A18FC
:1037800041EBE373C7E90023C9F80040FFF7E2FE0D
:103790002146FEF7FBFF88F31188BFF36F8FBDE86A
:1037A000F88F00BF8C000020C8030020A00100207B
:1037B00038B5044678B1FFF777F805460648002388
:1037C000A4FB0001054AFCF793FC0446FFF76CF8E4
:1037D000431BA342FAD338BD00A24A0440420F0063
:1037E000014800F032B800BF2452000838B5064C3A
:1037F000064DAC4201D3002038BD2046D4E9011269
:1038000001F08AF81434F4E7C0000020C000002062
:1038100070470346F0B419790068DB880125066912
:10382000DA07346854BF43F4D01383F4B0138D40E7
:1038300023F48012DB0787684CBF2C43AC43346011
:103840003B68F0BC1847002070470FB407B504A9C7
:1038500051F8040B0191FCF759FE03B05DF804EB3D
:1038600004B07047044608B5084611461A46A047FA
:10387000FFF7E6FDFDF75AFC00EBC1004088400869
:103880007047F8B50346FFF7F7FFB0FA80F0C0F1D4
:103890001F0003EB800CDCF81060CA00171D0C46FB
:1038A00006328DB256B9012101FA00F0D968014300
:1038B000D960CCF81040DD539D52F8BDF1000431C1
:1038C000585AD85303EBC0009E52C5805D52F4E7AE
:1038D000F0B40446043AC81D114420F0070021F05A
:1038E00007010E1AF308B3FA83F22060002704469A
:1038F000C2F12405AD008360073544F80C7FC2F1A6
:103900002002E90804EB820244F8047F9442FBD1D0
:103910004A0042F0010242805A1A550000EBC104ED
:1039200007806580841920F8311000EBC30367809D
:1039300082535A8842F001025A80F0BCFFF7A1BFBF
:103940002DE9F84F9A46D37880466F2B0F461546DF
:10395000A3F1410B29D024D8582B0CBF10260A26DE
:10396000DDF828903246002340463946FCF7C0FB7C
:10397000092AD4B21ED83034B045E4B277F100073A
:1039800009F8014D01D3D14511D82B789B0605D5F7
:10399000082E15D1AB7843F00803AB704846BDE85C
:1039A000F88F03F0F703702BD7E70826D8E7804697
:1039B0000F46D7E7BBF1190F94BF37345734DBE715
:1039C000102EEBD1AB7843F01003E6E72DE9F04180
:1039D0000746884615461E461446B44205D30EB126
:1039E000601B08E02378002BFAD0414614F8010B45
:1039F000B8470028F1DABDE8F08170470020704731
:103A000000F074BE0146006800F070BE0021012085
:103A1000FFF7F6BF08B5FDF787F9BDE80840FDF7E9
:103A20002FBA034600201A5C02B970470130FAE74A
:103A3000034600201A5C0AB1884200D17047013069
:103A4000F8E710B5431E0A44914200D110BD11F8A9
:103A5000014B03F8014FF7E70346C9B20244934212
:103A600000D1704703F8011BF9E74FF0FF307047B2
:103A700008B5062201210020FDF798FB0022062050
:103A80001146FDF73BF9012107220846FDF78EFBA1
:103A9000002207201146FDF731F9082201210220FA
:103AA000FDF784FB002208201146FDF727F90922C3
:103AB00001210320FDF77AFB002209201146FDF7C2
:103AC0001DF90A2201210420FDF770FB00220A20C3
:103AD0001146FDF713F9052117220846FDF766FB8D
:103AE000002217201146FDF709F9282206210A2095
:103AF000FDF75CFB002228201146FDF7FFF80020AF
:103B000008BD2DE9F3410E4614464D88B1F80480F6
:103B1000CF88836801A99B6A984778B905EB0803A9
:103B20003B4403FB04440198B0FBF4F43481A4B299
:103B300003FB0444B0FBF4F304FB130002B0BDE844
:103B4000F08110B50C46236811461BB16268984796
:103B50000023236010BD43681B6829B1006990F8F9
:103B6000ED0050B9042008702AB19969090C117050
:103B70009B691B0E5370002070479869400701D560
:103B80000320F0E79869800701D50220EBE79869E8
:103B900010F0010018BF0120E5E70B2300200B60A7
:103BA0007047436800209B6A0B60704700290CBF78
:103BB0000E200720704710B5436804691B68C4E9EC
:103BC00039125A6919B922F4E0625A6110BD42F4FF
:103BD000E062FAE7002210B5114604461420FDF712
:103BE0008DF81420FDF77CF8002213201146FDF714
:103BF00085F81320FDF774F8002216201146FDF712
:103C00007DF81620FDF76CF8636943F4044343F034
:103C10001303636110BD2DE9F04306464FF0000920
:103C2000436807691C6885B0E3689B0703D1E368B4
:103C300005B0BDE8F083102200216846D4F8B451E5
:103C4000FFF70AFFD4F8B031C5F3072513F0040FCE
:103C5000D4F8B021009B33D0D20862F31C03009348
:103C60009DF8053043F001038DF80530D4F8B031EC
:103C70009A0742BF9DF8053043F002038DF80530E6
:103C8000D4F8B431062D03F00F038DF80430D4F8C6
:103C9000B8310293D4F8BC31039316D807EB8505ED
:103CA000D5F87490D5F8C880B9F1000F03D042461A
:103CB00069463046C847E36843F02003E360B3E752
:103CC000520D62F31C030093D0E7222D9EBF07EB39
:103CD0008505D5F82090D5F87480E5E7F8B54368F8
:103CE00006461C680769A569A36805F0040503F08A
:103CF00001032B4317D0A368980758D4A36819076A
:103D000057D4A3685B0757D4002D0CBF6FF0040293
:103D10006FF07102A368304643F00103A36007F11E
:103D20002401FFF70EFFA36803F480732B4317D021
:103D3000A368980543D4A368190542D4A3685B051A
:103D400042D4002D0CBF6FF004026FF07102A36823
:103D5000304643F48073A36007F12C01FFF7F1FEB6
:103D6000A36803F480332B4317D0A36898032ED4A1
:103D7000A36819032DD4A3685B032DD4002D0CBFB9
:103D80006FF004026FF07102A368304643F4803391
:103D9000A36007F13401FFF7D4FEA36813F0E05FDE
:103DA0001DD007F11400BDE8F840FFF7F9B8002274
:103DB000B0E76FF00402ADE76FF00F02AAE7002250
:103DC000C5E76FF00402C2E76FF00F02BFE7002201
:103DD000DAE76FF00402D7E76FF00F02D4E7F8BD1F
:103DE000FFF77CBF2DE9F341436804461E68736802
:103DF0005B071BD5FFF772FF25690DF10301204614
:103E0000D5E9397801AAFFF7A6FE9DF8031095F8C9
:103E1000EC308B4206D085F8EC101FB143462046AB
:103E2000019AB847736843F00403736002B0BDE8B9
:103E3000F081FEF7FFBFFFF777B82DE9F041056984
:103E4000D0F804804FF0FF3306464FF0FF3228468B
:103E5000D8F80070FFF7EDFF95F8ED3083B33846E2
:103E6000FDF7CCFA041E2EDB6FF07202304605F12E
:103E70002401FFF766FE6FF07202304605F12C0157
:103E8000FFF75FFE30466FF0720205F13401FFF775
:103E900058FEBB6843F0801343F40043BB60D8F87E
:103EA000240020B183685B689847044610B900235A
:103EB00085F8ED302846FFF7BEFF2046BDE8F081CB
:103EC0006FF07704F6E76FF00404F3E72DE9F84F9D
:103ED000984643680D461C680B791746082BDDF899
:103EE00028A00669D4F8089074D84B79032B74D8AD
:103EF00096F8ED30002B73D0A369590773D44FF0B7
:103F0000FF324FF0FF333046FFF793FF06F1140BFB
:103F100019F0E05F37D019F0806F4BD004F5C07313
:103F200006F124020B99C2F800A051601A683046CD
:103F300002F001021A606A79296812F0010F1A680A
:103F400016BF42EAC10242EA415242F004021A603C
:103F50006A79920742BF1A6842F002021A605968F1
:103F60002A7921F00F0102F00F020A435A60AA6871
:103F70009A60EA68DA601A6842F001021A60FFF794
:103F80005AFF00200AE03046FFF755FF3A46434605
:103F90005846FFF725F818B16FF00A00BDE8F88F12
:103FA0004FF0FF324FF0FF333046FFF742FFD4F8B7
:103FB0000890ADE719F0006F04D004F5C87306F15E
:103FC0002C02AFE719F0805110D004F5D07306F140
:103FD0003402A7E76FF01500E0E76FF08500DDE73A
:103FE0006FF07200DAE76FF07100D7E7C1F800A058
:103FF0000B9B4B600B68FFDE70B543680D461C6879
:1040000031F00B03066926D196F8ED3033BB4FF043
:10401000FF3230464FF0FF33FFF70BFFE369E8074D
:104020004CBF43F0804323F08043E361E369A90779
:104030004CBF43F0004323F00043E36123682A07A9
:104040004CBF43F0100323F0100330462360FFF70A
:10405000F2FE002070BD6FF08500FBE76FF00F00EF
:10406000F8E70B68A3F11402082A9FBF03F180430D
:1040700003F504331A6849689BBF00200A436FF0B8
:1040800085001A6070470B68A3F11402082A9FBFCD
:1040900003F1804303F504331A6849689BBF00208D
:1040A0008A436FF085001A6070470B68022B01D0BD
:1040B000052B12D14A68FF2A0DD0D3B203F18043F9
:1040C00003F504331868C2F30241C2F3042201FA73
:1040D00002F202431A60002070476FF085007047BB
:1040E0007047436800205B689B680B6070474368BB
:1040F0005B68D86842400A404240DA60002070475E
:10410000436800205B6819617047436800205B6862
:1041100059617047436800205A68D3684B40D360A8
:10412000704710B503699868F8B1884219D1DC6806
:104130000868A142986000D1D860002008602AB1C8
:104140009A680A60DA68996002B9D960002010E0C4
:10415000814206D108682060D8688142EDD1DC60D8
:10416000EBE7044600680028F2D1002AE8D16FF09E
:10417000150010BD91FAA1F3B3FA83F370B50D0EDB
:104180000F2691FAA1F1B1FA81F144599B0006FA88
:1041900003F3890024EA03048A402243425170BD9C
:1041A00091FAA1F3B3FA83F370B50D0E032691FAD9
:1041B000A1F1B1FA81F144599B0006FA03F3890099
:1041C00024EA03048A402243425170BD91FAA1F3CC
:1041D000B3FA83F370B50D0E042691FAA1F1B1FA8A
:1041E00081F144599B0006FA03F3890024EA030491
:1041F0008A402243425170BD70B50B46896821B197
:1042000001255E680C68854001B970BD8A682A4046
:1042100002D030464B6898471CB1236821461C46A3
:10422000F2E72346FAE770B501241546072904FA98
:1042300001F2C8BF01F007014FEA0223C5BF8C405D
:104240001C4342EA030444F08064EA07406822D435
:1042500015F0060204D12146BDE87040FFF78ABF81
:10426000022A01D10422F6E705F4C075802D6FEA19
:1042700014264FEA14220BD192FAA2F20123B2FAC9
:1042800082F2C168934031400B430822C360E2E7E9
:10429000C3683340F9E76B0654BF01220922214667
:1042A000FFF768FF15F0200218BF0422214605F031
:1042B0001805FFF78BFF082D05D102222146BDE826
:1042C0007040FFF76DBF0DB90122F7E70322F5E754
:1042D00013469A0310B518D59C070FD55A072DD54C
:1042E0002122DC060CD542F0840213F4002F44682E
:1042F0001BD0012364688B40236111E00122F0E7A9
:104300009C06F2D542F48272EFE713F4803207D0B4
:10431000DC0611D413F0200F14BF4FF48272022276
:104320004068FFF780FF002010BD5B03F8D5012334
:1043300064688B406361F3E78422F1E76FF08500E6
:10434000F2E7F8B51F46044640680E461546FFF7EB
:104350006AFF032F08D1012303FA06F66368AA0552
:104360005B684CBF1E615E610020F8BD30B503681C
:1043700013600579046804EBC504A34202D36FF00F
:10438000010030BD5C798C4201D00833F0E7002099
:10439000F7E74163704781637047C1637047016409
:1043A00070474168036949681B680131B3FBF1F349
:1043B0000020C2E9003070474368C1F34B101B680E
:1043C00001F01F01C05801238B40034214BF012399
:1043D000002300201370704710B54368C1F34B10E1
:1043E0001A680123845801F01F018B402343835036
:1043F000002010BD012210B54368C1F34B141868AA
:1044000001F01F0123588A4023EA020323500020B1
:1044100010BD38B504460D46FFF7DEFF294620469D
:10442000FFF7E8FF002038BD00207047036882B026
:104430000193019B43680193019B02B0704737B51C
:104440000369456858680C4683686968DB68BBB1D6
:1044500001AA9847002813DB1922019BA4005343AB
:104460006422B3FBF4F1B1FBF2F002FB10131B0169
:104470003233B3FBF2F32D6803EB00139BB2AB6056
:1044800003B030BD08B54368186803681A0701D542
:10449000FFF7CCFF03689B0649BF43684FF0FF302E
:1044A00000200B7008BD10B54068026813681B0639
:1044B000FCD54FF01002EFF3118382F31288BFF3A3
:1044C0006F8F02681468240604D483F31188BFF345
:1044D0006F8FEAE7516083F31188BFF36F8F10BDD0
:1044E00008B541680B681A681868C2F3C002C007B3
:1044F000186848BF42F002028007186848BF42F0BF
:1045000004024007186848BF42F02002C00542BFBD
:104510006FF4807042F008021860D00702D5086876
:10452000FFF784FF930702D50868FFF77FFF500766
:1045300002D50868FFF77AFF930602D50868FFF7EF
:1045400075FF104608BD03691B680B6043681B6854
:10455000DB6803F4C063B3F5806F2FD0A3F5C06CA4
:10456000DCF1000343EB0C030B7143681B681B6910
:1045700003F44053B3F5805F22D0B3F5405F21D000
:10458000002B0CBF012303234B7143681B68DA68BF
:10459000DB68D20403F4C06316D5002B14BF0323D9
:1045A00004238B71436800201B685B6903F440732C
:1045B000A3F5407253425341CB7170470223D3E7B6
:1045C0000023E1E70223DFE7002B14BF02230323CC
:1045D000E7E730B50446086808B9106008E02068CD
:1045E00045689D4205D3B5FBF3F51560236818684F
:1045F00030BD08302060086801380860EBE70346EA
:104600000A4619790123006803FA01F103691B685E
:10461000194218BF82F0010212B18368DB681847A3
:1046200083681B69FBE738B503680446E3B1D868C3
:10463000D0B10568C5B149B10121FFF7E0FF23689A
:10464000DB689868BDE83840FFF7B2B812B95B681C
:10465000DB0409D48068FFF7ABF823680021D86831
:10466000BDE83840FFF7CBBF38BD10B501220021AF
:104670000446FFF7D8FFA36933B9636004F1100063
:10468000BDE81040FEF78CBC10BD08B50069FFF70F
:10469000ECFF002008BD00234FF0FF320380C0E98B
:1046A00002234360036170470023C0E90033C0E97F
:1046B0000233C0E90433C0E906337047704740B1A4
:1046C000C368587810F001001EBF1878B0FA80F067
:1046D000400970474FF01002EFF3118382F3128804
:1046E000BFF36F8FFEE708B5FFF7F4FFF8B5054697
:1046F0000E464FF01003EFF3118783F31288BFF3D8
:104700006F8FFEF79DFE314604462846FFF7EBFF0C
:1047100087F31188BFF36F8F2046BDE8F840FCF7A0
:1047200005BDFFF799B9FFF78CB908B54FF0100236
:10473000EFF3118382F31288BFF36F8FFCF7C2FA95
:10474000F4E790F90E308B4201D0FEF7C7BD002090
:10475000704703460020C3E90033C3E902007047F5
:104760003AB18A4205D3C0E90212C0E90000002034
:1047700070476FF015007047D0E9003213605A603F
:104780000023C0E90033704708B5FFF7F5FF437B0E
:1047900023F0020343730023836008BD014610B574
:1047A0004FF01003EFF3118483F31288BFF36F8F80
:1047B00010F80B3C13F0280F0DD151F8103C1838AD
:1047C0000BB1FFF7E1FF11F80B3C23F0140301F8E4
:1047D0000B3CFEF799FC84F31188BFF36F8F10BD7B
:1047E00038B504460D46FEF7C3FC637B43F0020375
:1047F0006373E5B1A5602B689D4209D16B68C4E97C
:1048000000531C606C6012E06A689342F6D01B682B
:10481000002BF3D094F90E2093F90E108A42F3D0B6
:104820009142F1DD5A68C4E9003214605C6038BD21
:1048300010B54FF01003EFF3118483F31288BFF328
:104840006F8FFEF761FC84F31188BFF36F8F10BD8B
:1048500038B54FF01003EFF3118583F31288BFF3DF
:104860006F8F0468A0420DD034B12046FFF78CFF53
:1048700004F1180000F01EF885F31188BFF36F8F64
:10488000204638BD0024F7E7034620B9EFF3058240
:104890000AB9FCF765BA83F31188BFF36F8F7047CD
:1048A0004FF01003EFF3118083F31288BFF36F8F83
:1048B000FFF7EABF10B54FF01002EFF3118482F357
:1048C0001288BFF36F8F03683BB1FEF76BFE0020C9
:1048D00084F31188BFF36F8F10BD6FF01500F7E7F9
:1048E00070B504460D464FF01003EFF3118683F3C5
:1048F0001288BFF36F8FFEF72DFE012807DDA0425F
:1049000005DBA0422946A8BF2046FDF73FFF86F3FE
:104910001188BFF36F8F70BD10B400F10C04C0E9B3
:08492000034410BCFEF7D4BFF4
:08492800FCB7FF7F0100000055
:104930008D0C000800000000FD3900080000000098
:1049400075190008C8490008ED370008000000008C
:10495000713A0008E0490008C91A0008F84900083F
:10496000C91A0008104A0008C91A0008284A000895
:10497000C91A0008404A0008C91A0008584A000825
:1049800029440008704A00083D1F0008884A0008B2
:10499000791A000800000000152700080000000038
:1049A00035160008A04A0008791E0008B84A000819
:1049B000791E0008D04A0008791E0008E84A00085D
:0849C00081210008004B0008F2
:1049C8003F5100080000000008000020A800002057
:1049D80000000000EA4C0008FF500008000000003A
:1049E80000000000A4000020A8010020E44C0008FA
:1049F8004C5100082C4E0008904E0008AA000020D8
:104A08002C030020DC4C00085A510008404E0008D6
:104A1800904E0008AC0000203C030020D44C000855
:104A280068510008544E0008904E0008AE0000205F
:104A38004C030020CC4C000876510008684E000852
:104A4800904E0008B00000205C030020C44C000811
:104A5800845100087C4E0008904E0008B2000020E7
:104A68006C030020BA4C0008B5510008A44F000898
:104A7800A84F0008BA00002000000000AA4C000857
:104A8800C6510008B84F0008FC4F0008BC000020C1
:104A980024000020A04C000828510008984D000868
:104AA800E44D0008A600002028020020984C0008C9
:104AB80092510008E04E0008704F0008B400002032
:104AC8007C0300208E4C000892510008104F00080B
:104AD800704F0008B600002080030020844C0008B6
:104AE80092510008404F0008704F0008B80000209D
:104AF800840300207A4C0008E1510008185000088F
:104B080048500008BE00002034000020704C000807
:104B1800000000000D3A0008000000000D3A0008EF
:104B2800000000000D3A0008000000000D3A0008DF
:104B3800000000000D3A0008000000000D3A0008CF
:104B4800FD50000865110008FB50000865110008B9
:104B5800F950000865110008F750000865110008B1
:104B6800F550000865110008000000000D3A000823
:104B7800000000000D3A0008000000000D3A00088F
:104B8800000000000D3A0008000000000D3A00087F
:104B9800000000000D3A0008000000000D3A00086F
:104BA800000000000D3A0008A04A0008E13D000896
:104BB800A04A0008173C0008000000000D3A000851
:104BC800A04A0008E53D0008F350000865110008F8
:104BD800000000000D3A0008000000000D3A00082F
:104BE800000000000D3A0008000000000D3A00081F
:104BF800000000000D3A0008000000000D3A00080F
:104C0800000000000D3A0008000000000D3A0008FE
:104C1800000000000D3A0008000000000D3A0008EE
:104C2800000000000D3A0008000000000D3A0008DE
:104C3800000000000D3A0008000000000D3A0008CE
:104C4800000000000D3A0008000000000D3A0008BE
:104C5800F150000865110008000000000D3A000836
:084C6800000000000D3A0008F5
:104C70000100070000800080FF7F01000800008025
:104C80000080FF7F0100080000800080FF7F01009E
:104C9000080000800080FF7F010000800080FF7F0F
:104CA0000100080000800080FF7F0100008000807C
:104CB00009000B000C000D00FF7F01000080008048
:104CC0000E00FF7F010000800080FF7F0100008058
:104CD0000080FF7F010000800080FF7F01000080D6
:104CE0000080FF7F00800080FF7F00800080030045
:104CF0000400050006000700080009000A000B0078
:084D00000C000D000E00FF7F06
:104D08001D51000800000000355100080000000097
:104D1800DA500008000000002152000800000000DE
:104D28009651000800000000EE5100080000000045
:084D3800D65100080000000044
:104D40000000000008000000100000001800000033
:104D500020000000280000003000000038000000A3
:104D6000404A000808000100404A0008070001000E
:104D7000404A000806000100D04A00080200000076
:104D8000E803000000000000E84A000804000000FA
:104D9000E8030000000000000064004000640040E0
:104DA00040420F006B030104020000001C000000E1
:104DB00000000002D53B0008C44D000800000000C0
:104DC00040420F00CC4D000801000000D44D000807
:104DD000020000002E000000000000003200000071
:104DE000000000009B3B0008AD1800083B3E000897
:104DF000F93F000859140008CD3E0008D1140008FE
:104E0000A5170008573B0008B73B000839140008F5
:104E1000AD3B0008A33B00080100000001000100B9
:104E20000100070000000F0007000004FFFF000062
:104E300000180140040000001800000040000000BD
:104E4000FFFF0000001401400300000018000000F4
:104E500020000000FFFF00000010014002000000E1
:104E60001800000010000000FFFF0000000C0140CF
:104E7000010000001800000008000000FFFF000013
:104E800000080140000000001800000004000000BD
:104E9000D1420008E3400008EF400008014100084B
:104EA0000B41000815410008F91A000823410008C9
:104EB00000000000584A0008404A0008284A00083C
:104EC000104A0008F8490008000000000000000037
:104ED00000000000000000000000000000000000D2
:104EE0000008004010270000000000001C00000027
:104EF00004000000F84E0008004F00080100000008
:104F0000084F0008010000005C6001000000000084
:104F100000040040E8030000000000001C00000046
:104F200002000000284F0008304F00080100000078
:104F3000384F0008010000001D5003000000000071
:104F400000000040E8030000000000001C0000001A
:104F500001000000584F0008604F000801000000E9
:104F6000684F0008010000000C4003000000000032
:104F7000CD1C0008A3430008934300089743000892
:104F80009B4300089F43000804000000400000000D
:104F900000040000010000001000000000010000FB
:104FA0000010000000100240B9430008D943000877
:104FB000F54300081344000800380140D44F0008AE
:104FC00001000000000000000000000000000000E0
:104FD000DC4F00081800000000400000E44F00080B
:104FE00001000000EC4F0008020000002410010046
:104FF00000000000291001000000000085440008A6
:10500000A7440008E144000825200008474500089F
:10501000584A0008040001000030014030500008E8
:1050200001000000285000081800000000100000D7
:105030003850000801000000405000080100000046
:105040001400010000000000452200088B46000803
:10505000F5FFFFFF30490008304900089849000873
:10506000A0490008C8490008C8490008001000000D
:1050700000303E3E3E4750494F204120524541447A
:1050800059204641494C213C3C3C200D0A003E3E03
:105090003E4750494F204220524541445920464105
:1050A000494C213C3C3C200D0A003E3E3E475049C5
:1050B0004F2043205245414459204641494C213C10
:1050C0003C3C200D0A004750494F204126422643D0
:1050D000205245414459210D0A0063627072696E85
:1050E00074665F7061636B61676500286E696C2927
:1050F000000A06050504010301020101010001691E
:105100006E746572727570742D636F6E74726F6CED
:105110006C65724034303031303430300063616E51
:105120005F636F6D6D6F6E0063616E403430303061
:10513000363430300063616E5F73746D33320072E9
:105140006363403430303231303030006770696F23
:10515000403430303131383030006770696F40345E
:1051600030303131343030006770696F4034303066
:105170003131303030006770696F40343030313059
:10518000633030006770696F403430303130383010
:10519000300070776D0070776D5F73746D3332001F
:1051A00000020406080A0C000008000000080000C5
:1051B000000004040472657365742D636F6E74726D
:1051C0006F6C6C65720073657269616C403430306D
:1051D000313338303000756172745F73746D3332FF
:1051E00000737069403430303133303030007370C8
:1051F000695F6C6C5F73746D3332000000000000F7
:105200000000000102030406070809020304050662
:105210000708090A0B0C0D0E0F1010006D61696E66
:10522000006F73002A2A2A20426F6F74696E67200C
:105230005A6570687972204F53206275696C6420DA
:105240007A65706879722D76332E332E302D353392
:10525000302D673137353163386630663539642033
:085260002A2A2A0A00000000BE
:10526800473800086B3A0008634000088740000888
:1052780000000000311900080000000000000000D4
:10528800AB4000080008070000000000704A000852
:105298008E0100000000000000000000105000080F
:1052A800010000004400002044000020000000002D
:1052B80001000000540000205400002000000000FD
:1052C80001000000000000000000000000000000D5
:1052D80000000000000000000000000000000000C6
:1052E80000000000000000000024F4008C000020F2
:1052F8008C000020FFFFFFFFFFFFFFFFFFFFFFFF06
:04530800FFFFFFFFA5
:10530C000000000000000000000000000000000091
:0C531C0000000000000000000000000085
:0453280015E015E097
:0400000508001101DD
:00000001FF
